{
	"Contracts/AddFiveStorage.sol": {
		"AddFiveStore": {
			"abi": [
				{
					"inputs": [
						{
							"internalType": "uint128",
							"name": "_favoriteNumber",
							"type": "uint128"
						},
						{
							"internalType": "string",
							"name": "_name",
							"type": "string"
						}
					],
					"name": "addpeople",
					"outputs": [],
					"stateMutability": "nonpayable",
					"type": "function"
				},
				{
					"inputs": [],
					"name": "favoriteNum",
					"outputs": [
						{
							"internalType": "uint128",
							"name": "",
							"type": "uint128"
						}
					],
					"stateMutability": "view",
					"type": "function"
				},
				{
					"inputs": [
						{
							"internalType": "uint256",
							"name": "",
							"type": "uint256"
						}
					],
					"name": "listofpeople",
					"outputs": [
						{
							"internalType": "uint256",
							"name": "favoriteNumber",
							"type": "uint256"
						},
						{
							"internalType": "string",
							"name": "name",
							"type": "string"
						}
					],
					"stateMutability": "view",
					"type": "function"
				},
				{
					"inputs": [
						{
							"internalType": "string",
							"name": "",
							"type": "string"
						}
					],
					"name": "nameToFavoriteNumber",
					"outputs": [
						{
							"internalType": "uint128",
							"name": "",
							"type": "uint128"
						}
					],
					"stateMutability": "view",
					"type": "function"
				},
				{
					"inputs": [],
					"name": "reteieve",
					"outputs": [
						{
							"internalType": "uint128",
							"name": "",
							"type": "uint128"
						}
					],
					"stateMutability": "view",
					"type": "function"
				},
				{
					"inputs": [
						{
							"internalType": "uint128",
							"name": "_NewNumber",
							"type": "uint128"
						}
					],
					"name": "store",
					"outputs": [],
					"stateMutability": "nonpayable",
					"type": "function"
				}
			],
			"devdoc": {
				"kind": "dev",
				"methods": {},
				"version": 1
			},
			"evm": {
				"assembly": "    /* \"Contracts/AddFiveStorage.sol\":123:316  contract AddFiveStore is SimpleStorage {... */\n  mstore(0x40, 0x80)\n  callvalue\n  dup1\n  iszero\n  tag_1\n  jumpi\n  revert(0x00, 0x00)\ntag_1:\n  pop\n  dataSize(sub_0)\n  dup1\n  dataOffset(sub_0)\n  0x00\n  codecopy\n  0x00\n  return\nstop\n\nsub_0: assembly {\n        /* \"Contracts/AddFiveStorage.sol\":123:316  contract AddFiveStore is SimpleStorage {... */\n      mstore(0x40, 0x80)\n      callvalue\n      dup1\n      iszero\n      tag_1\n      jumpi\n      revert(0x00, 0x00)\n    tag_1:\n      pop\n      jumpi(tag_2, lt(calldatasize, 0x04))\n      shr(0xe0, calldataload(0x00))\n      dup1\n      0x3b53afb8\n      eq\n      tag_3\n      jumpi\n      dup1\n      0x790418cc\n      eq\n      tag_4\n      jumpi\n      dup1\n      0x8bab8dd5\n      eq\n      tag_5\n      jumpi\n      dup1\n      0xbf119bdb\n      eq\n      tag_6\n      jumpi\n      dup1\n      0xdc6ff17a\n      eq\n      tag_7\n      jumpi\n      dup1\n      0xe41e141b\n      eq\n      tag_8\n      jumpi\n    tag_2:\n      revert(0x00, 0x00)\n        /* \"Contracts/SimpleStorage.sol\":563:751  function addpeople(uint128 _favoriteNumber, string memory _name) public {... */\n    tag_3:\n      tag_9\n      tag_10\n      calldatasize\n      0x04\n      tag_11\n      jump\t// in\n    tag_10:\n      tag_12\n      jump\t// in\n    tag_9:\n      stop\n        /* \"Contracts/SimpleStorage.sol\":93:119  uint128 public favoriteNum */\n    tag_4:\n      sload(0x00)\n      tag_13\n      swap1\n      sub(shl(0x80, 0x01), 0x01)\n      and\n      dup2\n      jump\n    tag_13:\n      mload(0x40)\n      sub(shl(0x80, 0x01), 0x01)\n        /* \"#utility.yul\":1635:1682   */\n      swap1\n      swap2\n      and\n        /* \"#utility.yul\":1617:1683   */\n      dup2\n      mstore\n        /* \"#utility.yul\":1605:1607   */\n      0x20\n        /* \"#utility.yul\":1590:1608   */\n      add\n        /* \"Contracts/SimpleStorage.sol\":93:119  uint128 public favoriteNum */\n    tag_15:\n      mload(0x40)\n      dup1\n      swap2\n      sub\n      swap1\n      return\n        /* \"Contracts/SimpleStorage.sol\":300:354  mapping(string => uint128) public nameToFavoriteNumber */\n    tag_5:\n      tag_13\n      tag_18\n      calldatasize\n      0x04\n      tag_19\n      jump\t// in\n    tag_18:\n      dup1\n      mload\n      0x20\n      dup2\n      dup4\n      add\n      dup2\n      add\n      dup1\n      mload\n      0x02\n      dup3\n      mstore\n      swap3\n      dup3\n      add\n      swap2\n      swap1\n      swap4\n      add\n      keccak256\n      swap2\n      mstore\n      sload\n      sub(shl(0x80, 0x01), 0x01)\n      and\n      dup2\n      jump\n        /* \"Contracts/SimpleStorage.sol\":265:293  person[] public listofpeople */\n    tag_6:\n      tag_22\n      tag_23\n      calldatasize\n      0x04\n      tag_24\n      jump\t// in\n    tag_23:\n      tag_25\n      jump\t// in\n    tag_22:\n      mload(0x40)\n      tag_15\n      swap3\n      swap2\n      swap1\n      tag_27\n      jump\t// in\n        /* \"Contracts/AddFiveStorage.sol\":212:309  function store(uint128 _NewNumber) public override {... */\n    tag_7:\n      tag_9\n      tag_29\n      calldatasize\n      0x04\n      tag_30\n      jump\t// in\n    tag_29:\n      tag_31\n      jump\t// in\n        /* \"Contracts/SimpleStorage.sol\":473:555  function reteieve() public view returns(uint128) {... */\n    tag_8:\n        /* \"Contracts/SimpleStorage.sol\":513:520  uint128 */\n      0x00\n        /* \"Contracts/SimpleStorage.sol\":536:547  favoriteNum */\n      sload\n      sub(shl(0x80, 0x01), 0x01)\n      and\n        /* \"Contracts/SimpleStorage.sol\":473:555  function reteieve() public view returns(uint128) {... */\n      jump(tag_13)\n        /* \"Contracts/SimpleStorage.sol\":563:751  function addpeople(uint128 _favoriteNumber, string memory _name) public {... */\n    tag_12:\n        /* \"Contracts/SimpleStorage.sol\":660:690  person(_favoriteNumber, _name) */\n      0x40\n      dup1\n      mload\n      dup1\n      dup3\n      add\n      swap1\n      swap2\n      mstore\n      sub(shl(0x80, 0x01), 0x01)\n      dup4\n      and\n      dup2\n      mstore\n      0x20\n      dup2\n      add\n      dup3\n      dup2\n      mstore\n        /* \"Contracts/SimpleStorage.sol\":642:654  listofpeople */\n      0x01\n        /* \"Contracts/SimpleStorage.sol\":642:691  listofpeople.push(person(_favoriteNumber, _name)) */\n      dup1\n      sload\n      dup1\n      dup3\n      add\n      dup3\n      sstore\n      0x00\n      swap2\n      swap1\n      swap2\n      mstore\n      dup3\n      mload\n      0x02\n      swap1\n      swap2\n      mul\n      0xb10e2d527612073b26eecdfd717e6a320cf44b4afac2b0732d9fcbe2b7fa0cf6\n      dup2\n      add\n      swap2\n      dup3\n      sstore\n      swap2\n      mload\n      swap1\n      swap2\n      0xb10e2d527612073b26eecdfd717e6a320cf44b4afac2b0732d9fcbe2b7fa0cf7\n      add\n      swap1\n      tag_37\n      swap1\n      dup3\n      tag_38\n      jump\t// in\n    tag_37:\n      pop\n      pop\n      pop\n        /* \"Contracts/SimpleStorage.sol\":728:743  _favoriteNumber */\n      dup2\n        /* \"Contracts/SimpleStorage.sol\":698:718  nameToFavoriteNumber */\n      0x02\n        /* \"Contracts/SimpleStorage.sol\":719:724  _name */\n      dup3\n        /* \"Contracts/SimpleStorage.sol\":698:725  nameToFavoriteNumber[_name] */\n      mload(0x40)\n      tag_39\n      swap2\n      swap1\n      tag_40\n      jump\t// in\n    tag_39:\n      swap1\n      dup2\n      mstore\n      mload(0x40)\n      swap1\n      dup2\n      swap1\n      sub\n      0x20\n      add\n      swap1\n      keccak256\n        /* \"Contracts/SimpleStorage.sol\":698:743  nameToFavoriteNumber[_name] = _favoriteNumber */\n      dup1\n      sload\n      sub(shl(0x80, 0x01), 0x01)\n      swap3\n      swap1\n      swap3\n      and\n      not(sub(shl(0x80, 0x01), 0x01))\n      swap1\n      swap3\n      and\n      swap2\n      swap1\n      swap2\n      or\n      swap1\n      sstore\n      pop\n      pop\n        /* \"Contracts/SimpleStorage.sol\":563:751  function addpeople(uint128 _favoriteNumber, string memory _name) public {... */\n      jump\t// out\n        /* \"Contracts/SimpleStorage.sol\":265:293  person[] public listofpeople */\n    tag_25:\n      0x01\n      dup2\n      dup2\n      sload\n      dup2\n      lt\n      tag_41\n      jumpi\n      0x00\n      dup1\n      revert\n    tag_41:\n      0x00\n      swap2\n      dup3\n      mstore\n      0x20\n      swap1\n      swap2\n      keccak256\n      0x02\n      swap1\n      swap2\n      mul\n      add\n      dup1\n      sload\n      0x01\n      dup3\n      add\n      dup1\n      sload\n      swap2\n      swap4\n      pop\n      swap1\n      tag_43\n      swap1\n      tag_44\n      jump\t// in\n    tag_43:\n      dup1\n      0x1f\n      add\n      0x20\n      dup1\n      swap2\n      div\n      mul\n      0x20\n      add\n      mload(0x40)\n      swap1\n      dup2\n      add\n      0x40\n      mstore\n      dup1\n      swap3\n      swap2\n      swap1\n      dup2\n      dup2\n      mstore\n      0x20\n      add\n      dup3\n      dup1\n      sload\n      tag_45\n      swap1\n      tag_44\n      jump\t// in\n    tag_45:\n      dup1\n      iszero\n      tag_46\n      jumpi\n      dup1\n      0x1f\n      lt\n      tag_47\n      jumpi\n      0x0100\n      dup1\n      dup4\n      sload\n      div\n      mul\n      dup4\n      mstore\n      swap2\n      0x20\n      add\n      swap2\n      jump(tag_46)\n    tag_47:\n      dup3\n      add\n      swap2\n      swap1\n      0x00\n      mstore\n      keccak256(0x00, 0x20)\n      swap1\n    tag_48:\n      dup2\n      sload\n      dup2\n      mstore\n      swap1\n      0x01\n      add\n      swap1\n      0x20\n      add\n      dup1\n      dup4\n      gt\n      tag_48\n      jumpi\n      dup3\n      swap1\n      sub\n      0x1f\n      and\n      dup3\n      add\n      swap2\n    tag_46:\n      pop\n      pop\n      pop\n      pop\n      pop\n      swap1\n      pop\n      dup3\n      jump\t// out\n        /* \"Contracts/AddFiveStorage.sol\":212:309  function store(uint128 _NewNumber) public override {... */\n    tag_31:\n        /* \"Contracts/AddFiveStorage.sol\":288:301  _NewNumber +5 */\n      tag_50\n        /* \"Contracts/AddFiveStorage.sol\":288:298  _NewNumber */\n      dup2\n        /* \"Contracts/AddFiveStorage.sol\":300:301  5 */\n      0x05\n        /* \"Contracts/AddFiveStorage.sol\":288:301  _NewNumber +5 */\n      tag_51\n      jump\t// in\n    tag_50:\n        /* \"Contracts/AddFiveStorage.sol\":274:285  favoriteNum */\n      0x00\n        /* \"Contracts/AddFiveStorage.sol\":274:301  favoriteNum = _NewNumber +5 */\n      dup1\n      sload\n      not(sub(shl(0x80, 0x01), 0x01))\n      and\n      sub(shl(0x80, 0x01), 0x01)\n      swap3\n      swap1\n      swap3\n      and\n      swap2\n      swap1\n      swap2\n      or\n      swap1\n      sstore\n      pop\n        /* \"Contracts/AddFiveStorage.sol\":212:309  function store(uint128 _NewNumber) public override {... */\n      jump\t// out\n        /* \"#utility.yul\":14:202   */\n    tag_53:\n        /* \"#utility.yul\":82:102   */\n      dup1\n      calldataload\n      sub(shl(0x80, 0x01), 0x01)\n        /* \"#utility.yul\":131:177   */\n      dup2\n      and\n        /* \"#utility.yul\":121:178   */\n      dup2\n      eq\n        /* \"#utility.yul\":111:196   */\n      tag_61\n      jumpi\n        /* \"#utility.yul\":192:193   */\n      0x00\n        /* \"#utility.yul\":189:190   */\n      0x00\n        /* \"#utility.yul\":182:194   */\n      revert\n        /* \"#utility.yul\":111:196   */\n    tag_61:\n        /* \"#utility.yul\":14:202   */\n      swap2\n      swap1\n      pop\n      jump\t// out\n        /* \"#utility.yul\":207:334   */\n    tag_54:\n        /* \"#utility.yul\":268:278   */\n      0x4e487b71\n        /* \"#utility.yul\":263:266   */\n      0xe0\n        /* \"#utility.yul\":259:279   */\n      shl\n        /* \"#utility.yul\":256:257   */\n      0x00\n        /* \"#utility.yul\":249:280   */\n      mstore\n        /* \"#utility.yul\":299:303   */\n      0x41\n        /* \"#utility.yul\":296:297   */\n      0x04\n        /* \"#utility.yul\":289:304   */\n      mstore\n        /* \"#utility.yul\":323:327   */\n      0x24\n        /* \"#utility.yul\":320:321   */\n      0x00\n        /* \"#utility.yul\":313:328   */\n      revert\n        /* \"#utility.yul\":339:1065   */\n    tag_55:\n        /* \"#utility.yul\":382:387   */\n      0x00\n        /* \"#utility.yul\":435:438   */\n      dup3\n        /* \"#utility.yul\":428:432   */\n      0x1f\n        /* \"#utility.yul\":420:426   */\n      dup4\n        /* \"#utility.yul\":416:433   */\n      add\n        /* \"#utility.yul\":412:439   */\n      slt\n        /* \"#utility.yul\":402:457   */\n      tag_64\n      jumpi\n        /* \"#utility.yul\":453:454   */\n      0x00\n        /* \"#utility.yul\":450:451   */\n      0x00\n        /* \"#utility.yul\":443:455   */\n      revert\n        /* \"#utility.yul\":402:457   */\n    tag_64:\n        /* \"#utility.yul\":493:499   */\n      dup2\n        /* \"#utility.yul\":480:500   */\n      calldataload\n        /* \"#utility.yul\":523:541   */\n      0xffffffffffffffff\n        /* \"#utility.yul\":515:521   */\n      dup2\n        /* \"#utility.yul\":512:542   */\n      gt\n        /* \"#utility.yul\":509:565   */\n      iszero\n      tag_66\n      jumpi\n        /* \"#utility.yul\":545:563   */\n      tag_66\n      tag_54\n      jump\t// in\n    tag_66:\n        /* \"#utility.yul\":594:596   */\n      0x40\n        /* \"#utility.yul\":588:597   */\n      mload\n        /* \"#utility.yul\":686:688   */\n      0x1f\n        /* \"#utility.yul\":648:665   */\n      dup3\n      add\n      not(0x1f)\n        /* \"#utility.yul\":644:675   */\n      swap1\n      dup2\n      and\n        /* \"#utility.yul\":677:679   */\n      0x3f\n        /* \"#utility.yul\":640:680   */\n      add\n        /* \"#utility.yul\":636:690   */\n      and\n        /* \"#utility.yul\":624:691   */\n      dup2\n      add\n        /* \"#utility.yul\":721:739   */\n      0xffffffffffffffff\n        /* \"#utility.yul\":706:740   */\n      dup2\n      gt\n        /* \"#utility.yul\":742:764   */\n      dup3\n      dup3\n      lt\n        /* \"#utility.yul\":703:765   */\n      or\n        /* \"#utility.yul\":700:788   */\n      iszero\n      tag_68\n      jumpi\n        /* \"#utility.yul\":768:786   */\n      tag_68\n      tag_54\n      jump\t// in\n    tag_68:\n        /* \"#utility.yul\":804:806   */\n      0x40\n        /* \"#utility.yul\":797:819   */\n      mstore\n        /* \"#utility.yul\":828:850   */\n      dup2\n      dup2\n      mstore\n        /* \"#utility.yul\":869:888   */\n      dup4\n      dup3\n      add\n        /* \"#utility.yul\":890:894   */\n      0x20\n        /* \"#utility.yul\":865:895   */\n      add\n        /* \"#utility.yul\":862:901   */\n      dup6\n      lt\n        /* \"#utility.yul\":859:918   */\n      iszero\n      tag_69\n      jumpi\n        /* \"#utility.yul\":914:915   */\n      0x00\n        /* \"#utility.yul\":911:912   */\n      0x00\n        /* \"#utility.yul\":904:916   */\n      revert\n        /* \"#utility.yul\":859:918   */\n    tag_69:\n        /* \"#utility.yul\":978:984   */\n      dup2\n        /* \"#utility.yul\":971:975   */\n      0x20\n        /* \"#utility.yul\":963:969   */\n      dup6\n        /* \"#utility.yul\":959:976   */\n      add\n        /* \"#utility.yul\":952:956   */\n      0x20\n        /* \"#utility.yul\":944:950   */\n      dup4\n        /* \"#utility.yul\":940:957   */\n      add\n        /* \"#utility.yul\":927:985   */\n      calldatacopy\n        /* \"#utility.yul\":1033:1034   */\n      0x00\n        /* \"#utility.yul\":1005:1024   */\n      swap2\n      dup2\n      add\n        /* \"#utility.yul\":1026:1030   */\n      0x20\n        /* \"#utility.yul\":1001:1031   */\n      add\n        /* \"#utility.yul\":994:1035   */\n      swap2\n      swap1\n      swap2\n      mstore\n        /* \"#utility.yul\":1009:1015   */\n      swap4\n        /* \"#utility.yul\":339:1065   */\n      swap3\n      pop\n      pop\n      pop\n      jump\t// out\n        /* \"#utility.yul\":1070:1466   */\n    tag_11:\n        /* \"#utility.yul\":1148:1154   */\n      0x00\n        /* \"#utility.yul\":1156:1162   */\n      0x00\n        /* \"#utility.yul\":1209:1211   */\n      0x40\n        /* \"#utility.yul\":1197:1206   */\n      dup4\n        /* \"#utility.yul\":1188:1195   */\n      dup6\n        /* \"#utility.yul\":1184:1207   */\n      sub\n        /* \"#utility.yul\":1180:1212   */\n      slt\n        /* \"#utility.yul\":1177:1229   */\n      iszero\n      tag_71\n      jumpi\n        /* \"#utility.yul\":1225:1226   */\n      0x00\n        /* \"#utility.yul\":1222:1223   */\n      0x00\n        /* \"#utility.yul\":1215:1227   */\n      revert\n        /* \"#utility.yul\":1177:1229   */\n    tag_71:\n        /* \"#utility.yul\":1248:1277   */\n      tag_72\n        /* \"#utility.yul\":1267:1276   */\n      dup4\n        /* \"#utility.yul\":1248:1277   */\n      tag_53\n      jump\t// in\n    tag_72:\n        /* \"#utility.yul\":1238:1277   */\n      swap2\n      pop\n        /* \"#utility.yul\":1328:1330   */\n      0x20\n        /* \"#utility.yul\":1317:1326   */\n      dup4\n        /* \"#utility.yul\":1313:1331   */\n      add\n        /* \"#utility.yul\":1300:1332   */\n      calldataload\n        /* \"#utility.yul\":1355:1373   */\n      0xffffffffffffffff\n        /* \"#utility.yul\":1347:1353   */\n      dup2\n        /* \"#utility.yul\":1344:1374   */\n      gt\n        /* \"#utility.yul\":1341:1391   */\n      iszero\n      tag_73\n      jumpi\n        /* \"#utility.yul\":1387:1388   */\n      0x00\n        /* \"#utility.yul\":1384:1385   */\n      0x00\n        /* \"#utility.yul\":1377:1389   */\n      revert\n        /* \"#utility.yul\":1341:1391   */\n    tag_73:\n        /* \"#utility.yul\":1410:1460   */\n      tag_74\n        /* \"#utility.yul\":1452:1459   */\n      dup6\n        /* \"#utility.yul\":1443:1449   */\n      dup3\n        /* \"#utility.yul\":1432:1441   */\n      dup7\n        /* \"#utility.yul\":1428:1450   */\n      add\n        /* \"#utility.yul\":1410:1460   */\n      tag_55\n      jump\t// in\n    tag_74:\n        /* \"#utility.yul\":1400:1460   */\n      swap2\n      pop\n      pop\n        /* \"#utility.yul\":1070:1466   */\n      swap3\n      pop\n      swap3\n      swap1\n      pop\n      jump\t// out\n        /* \"#utility.yul\":1694:2016   */\n    tag_19:\n        /* \"#utility.yul\":1763:1769   */\n      0x00\n        /* \"#utility.yul\":1816:1818   */\n      0x20\n        /* \"#utility.yul\":1804:1813   */\n      dup3\n        /* \"#utility.yul\":1795:1802   */\n      dup5\n        /* \"#utility.yul\":1791:1814   */\n      sub\n        /* \"#utility.yul\":1787:1819   */\n      slt\n        /* \"#utility.yul\":1784:1836   */\n      iszero\n      tag_77\n      jumpi\n        /* \"#utility.yul\":1832:1833   */\n      0x00\n        /* \"#utility.yul\":1829:1830   */\n      0x00\n        /* \"#utility.yul\":1822:1834   */\n      revert\n        /* \"#utility.yul\":1784:1836   */\n    tag_77:\n        /* \"#utility.yul\":1872:1881   */\n      dup2\n        /* \"#utility.yul\":1859:1882   */\n      calldataload\n        /* \"#utility.yul\":1905:1923   */\n      0xffffffffffffffff\n        /* \"#utility.yul\":1897:1903   */\n      dup2\n        /* \"#utility.yul\":1894:1924   */\n      gt\n        /* \"#utility.yul\":1891:1941   */\n      iszero\n      tag_78\n      jumpi\n        /* \"#utility.yul\":1937:1938   */\n      0x00\n        /* \"#utility.yul\":1934:1935   */\n      0x00\n        /* \"#utility.yul\":1927:1939   */\n      revert\n        /* \"#utility.yul\":1891:1941   */\n    tag_78:\n        /* \"#utility.yul\":1960:2010   */\n      tag_79\n        /* \"#utility.yul\":2002:2009   */\n      dup5\n        /* \"#utility.yul\":1993:1999   */\n      dup3\n        /* \"#utility.yul\":1982:1991   */\n      dup6\n        /* \"#utility.yul\":1978:2000   */\n      add\n        /* \"#utility.yul\":1960:2010   */\n      tag_55\n      jump\t// in\n    tag_79:\n        /* \"#utility.yul\":1950:2010   */\n      swap5\n        /* \"#utility.yul\":1694:2016   */\n      swap4\n      pop\n      pop\n      pop\n      pop\n      jump\t// out\n        /* \"#utility.yul\":2021:2201   */\n    tag_24:\n        /* \"#utility.yul\":2080:2086   */\n      0x00\n        /* \"#utility.yul\":2133:2135   */\n      0x20\n        /* \"#utility.yul\":2121:2130   */\n      dup3\n        /* \"#utility.yul\":2112:2119   */\n      dup5\n        /* \"#utility.yul\":2108:2131   */\n      sub\n        /* \"#utility.yul\":2104:2136   */\n      slt\n        /* \"#utility.yul\":2101:2153   */\n      iszero\n      tag_81\n      jumpi\n        /* \"#utility.yul\":2149:2150   */\n      0x00\n        /* \"#utility.yul\":2146:2147   */\n      0x00\n        /* \"#utility.yul\":2139:2151   */\n      revert\n        /* \"#utility.yul\":2101:2153   */\n    tag_81:\n      pop\n        /* \"#utility.yul\":2172:2195   */\n      calldataload\n      swap2\n        /* \"#utility.yul\":2021:2201   */\n      swap1\n      pop\n      jump\t// out\n        /* \"#utility.yul\":2206:2695   */\n    tag_27:\n        /* \"#utility.yul\":2383:2389   */\n      dup3\n        /* \"#utility.yul\":2372:2381   */\n      dup2\n        /* \"#utility.yul\":2365:2390   */\n      mstore\n        /* \"#utility.yul\":2426:2428   */\n      0x40\n        /* \"#utility.yul\":2421:2423   */\n      0x20\n        /* \"#utility.yul\":2410:2419   */\n      dup3\n        /* \"#utility.yul\":2406:2424   */\n      add\n        /* \"#utility.yul\":2399:2429   */\n      mstore\n        /* \"#utility.yul\":2346:2350   */\n      0x00\n        /* \"#utility.yul\":2458:2464   */\n      dup3\n        /* \"#utility.yul\":2452:2465   */\n      mload\n        /* \"#utility.yul\":2501:2507   */\n      dup1\n        /* \"#utility.yul\":2496:2498   */\n      0x40\n        /* \"#utility.yul\":2485:2494   */\n      dup5\n        /* \"#utility.yul\":2481:2499   */\n      add\n        /* \"#utility.yul\":2474:2508   */\n      mstore\n        /* \"#utility.yul\":2560:2566   */\n      dup1\n        /* \"#utility.yul\":2555:2557   */\n      0x20\n        /* \"#utility.yul\":2547:2553   */\n      dup6\n        /* \"#utility.yul\":2543:2558   */\n      add\n        /* \"#utility.yul\":2538:2540   */\n      0x60\n        /* \"#utility.yul\":2527:2536   */\n      dup6\n        /* \"#utility.yul\":2523:2541   */\n      add\n        /* \"#utility.yul\":2517:2567   */\n      mcopy\n        /* \"#utility.yul\":2616:2617   */\n      0x00\n        /* \"#utility.yul\":2611:2613   */\n      0x60\n        /* \"#utility.yul\":2602:2608   */\n      dup3\n        /* \"#utility.yul\":2591:2600   */\n      dup6\n        /* \"#utility.yul\":2587:2609   */\n      add\n        /* \"#utility.yul\":2583:2614   */\n      add\n        /* \"#utility.yul\":2576:2618   */\n      mstore\n        /* \"#utility.yul\":2686:2688   */\n      0x60\n        /* \"#utility.yul\":2679:2681   */\n      0x1f\n        /* \"#utility.yul\":2675:2682   */\n      not\n        /* \"#utility.yul\":2670:2672   */\n      0x1f\n        /* \"#utility.yul\":2662:2668   */\n      dup4\n        /* \"#utility.yul\":2658:2673   */\n      add\n        /* \"#utility.yul\":2654:2683   */\n      and\n        /* \"#utility.yul\":2643:2652   */\n      dup5\n        /* \"#utility.yul\":2639:2684   */\n      add\n        /* \"#utility.yul\":2635:2689   */\n      add\n        /* \"#utility.yul\":2627:2689   */\n      swap2\n      pop\n      pop\n        /* \"#utility.yul\":2206:2695   */\n      swap4\n      swap3\n      pop\n      pop\n      pop\n      jump\t// out\n        /* \"#utility.yul\":2700:2886   */\n    tag_30:\n        /* \"#utility.yul\":2759:2765   */\n      0x00\n        /* \"#utility.yul\":2812:2814   */\n      0x20\n        /* \"#utility.yul\":2800:2809   */\n      dup3\n        /* \"#utility.yul\":2791:2798   */\n      dup5\n        /* \"#utility.yul\":2787:2810   */\n      sub\n        /* \"#utility.yul\":2783:2815   */\n      slt\n        /* \"#utility.yul\":2780:2832   */\n      iszero\n      tag_84\n      jumpi\n        /* \"#utility.yul\":2828:2829   */\n      0x00\n        /* \"#utility.yul\":2825:2826   */\n      0x00\n        /* \"#utility.yul\":2818:2830   */\n      revert\n        /* \"#utility.yul\":2780:2832   */\n    tag_84:\n        /* \"#utility.yul\":2851:2880   */\n      tag_85\n        /* \"#utility.yul\":2870:2879   */\n      dup3\n        /* \"#utility.yul\":2851:2880   */\n      tag_53\n      jump\t// in\n    tag_85:\n        /* \"#utility.yul\":2841:2880   */\n      swap4\n        /* \"#utility.yul\":2700:2886   */\n      swap3\n      pop\n      pop\n      pop\n      jump\t// out\n        /* \"#utility.yul\":2891:3271   */\n    tag_44:\n        /* \"#utility.yul\":2970:2971   */\n      0x01\n        /* \"#utility.yul\":2966:2978   */\n      dup2\n      dup2\n      shr\n      swap1\n        /* \"#utility.yul\":3013:3025   */\n      dup3\n      and\n      dup1\n        /* \"#utility.yul\":3034:3095   */\n      tag_87\n      jumpi\n        /* \"#utility.yul\":3088:3092   */\n      0x7f\n        /* \"#utility.yul\":3080:3086   */\n      dup3\n        /* \"#utility.yul\":3076:3093   */\n      and\n        /* \"#utility.yul\":3066:3093   */\n      swap2\n      pop\n        /* \"#utility.yul\":3034:3095   */\n    tag_87:\n        /* \"#utility.yul\":3141:3143   */\n      0x20\n        /* \"#utility.yul\":3133:3139   */\n      dup3\n        /* \"#utility.yul\":3130:3144   */\n      lt\n        /* \"#utility.yul\":3110:3128   */\n      dup2\n        /* \"#utility.yul\":3107:3145   */\n      sub\n        /* \"#utility.yul\":3104:3265   */\n      tag_88\n      jumpi\n        /* \"#utility.yul\":3187:3197   */\n      0x4e487b71\n        /* \"#utility.yul\":3182:3185   */\n      0xe0\n        /* \"#utility.yul\":3178:3198   */\n      shl\n        /* \"#utility.yul\":3175:3176   */\n      0x00\n        /* \"#utility.yul\":3168:3199   */\n      mstore\n        /* \"#utility.yul\":3222:3226   */\n      0x22\n        /* \"#utility.yul\":3219:3220   */\n      0x04\n        /* \"#utility.yul\":3212:3227   */\n      mstore\n        /* \"#utility.yul\":3250:3254   */\n      0x24\n        /* \"#utility.yul\":3247:3248   */\n      0x00\n        /* \"#utility.yul\":3240:3255   */\n      revert\n        /* \"#utility.yul\":3104:3265   */\n    tag_88:\n      pop\n        /* \"#utility.yul\":2891:3271   */\n      swap2\n      swap1\n      pop\n      jump\t// out\n        /* \"#utility.yul\":3402:3920   */\n    tag_57:\n        /* \"#utility.yul\":3504:3506   */\n      0x1f\n        /* \"#utility.yul\":3499:3502   */\n      dup3\n        /* \"#utility.yul\":3496:3507   */\n      gt\n        /* \"#utility.yul\":3493:3914   */\n      iszero\n      tag_91\n      jumpi\n        /* \"#utility.yul\":3540:3545   */\n      dup1\n        /* \"#utility.yul\":3537:3538   */\n      0x00\n        /* \"#utility.yul\":3530:3546   */\n      mstore\n        /* \"#utility.yul\":3584:3588   */\n      0x20\n        /* \"#utility.yul\":3581:3582   */\n      0x00\n        /* \"#utility.yul\":3571:3589   */\n      keccak256\n        /* \"#utility.yul\":3654:3656   */\n      0x1f\n        /* \"#utility.yul\":3642:3652   */\n      dup5\n        /* \"#utility.yul\":3638:3657   */\n      add\n        /* \"#utility.yul\":3635:3636   */\n      0x05\n        /* \"#utility.yul\":3631:3658   */\n      shr\n        /* \"#utility.yul\":3625:3629   */\n      dup2\n        /* \"#utility.yul\":3621:3659   */\n      add\n        /* \"#utility.yul\":3690:3694   */\n      0x20\n        /* \"#utility.yul\":3678:3688   */\n      dup6\n        /* \"#utility.yul\":3675:3695   */\n      lt\n        /* \"#utility.yul\":3672:3719   */\n      iszero\n      tag_92\n      jumpi\n      pop\n        /* \"#utility.yul\":3713:3717   */\n      dup1\n        /* \"#utility.yul\":3672:3719   */\n    tag_92:\n        /* \"#utility.yul\":3768:3770   */\n      0x1f\n        /* \"#utility.yul\":3763:3766   */\n      dup5\n        /* \"#utility.yul\":3759:3771   */\n      add\n        /* \"#utility.yul\":3756:3757   */\n      0x05\n        /* \"#utility.yul\":3752:3772   */\n      shr\n        /* \"#utility.yul\":3746:3750   */\n      dup3\n        /* \"#utility.yul\":3742:3773   */\n      add\n        /* \"#utility.yul\":3732:3773   */\n      swap2\n      pop\n        /* \"#utility.yul\":3823:3904   */\n    tag_93:\n        /* \"#utility.yul\":3841:3843   */\n      dup2\n        /* \"#utility.yul\":3834:3839   */\n      dup2\n        /* \"#utility.yul\":3831:3844   */\n      lt\n        /* \"#utility.yul\":3823:3904   */\n      iszero\n      tag_95\n      jumpi\n        /* \"#utility.yul\":3900:3901   */\n      0x00\n        /* \"#utility.yul\":3886:3902   */\n      dup2\n      sstore\n        /* \"#utility.yul\":3867:3868   */\n      0x01\n        /* \"#utility.yul\":3856:3869   */\n      add\n        /* \"#utility.yul\":3823:3904   */\n      jump(tag_93)\n    tag_95:\n        /* \"#utility.yul\":3827:3830   */\n      pop\n      pop\n        /* \"#utility.yul\":3493:3914   */\n    tag_91:\n        /* \"#utility.yul\":3402:3920   */\n      pop\n      pop\n      pop\n      jump\t// out\n        /* \"#utility.yul\":4096:5395   */\n    tag_38:\n        /* \"#utility.yul\":4222:4225   */\n      dup2\n        /* \"#utility.yul\":4216:4226   */\n      mload\n        /* \"#utility.yul\":4249:4267   */\n      0xffffffffffffffff\n        /* \"#utility.yul\":4241:4247   */\n      dup2\n        /* \"#utility.yul\":4238:4268   */\n      gt\n        /* \"#utility.yul\":4235:4291   */\n      iszero\n      tag_99\n      jumpi\n        /* \"#utility.yul\":4271:4289   */\n      tag_99\n      tag_54\n      jump\t// in\n    tag_99:\n        /* \"#utility.yul\":4300:4397   */\n      tag_100\n        /* \"#utility.yul\":4390:4396   */\n      dup2\n        /* \"#utility.yul\":4350:4388   */\n      tag_101\n        /* \"#utility.yul\":4382:4386   */\n      dup5\n        /* \"#utility.yul\":4376:4387   */\n      sload\n        /* \"#utility.yul\":4350:4388   */\n      tag_44\n      jump\t// in\n    tag_101:\n        /* \"#utility.yul\":4344:4348   */\n      dup5\n        /* \"#utility.yul\":4300:4397   */\n      tag_57\n      jump\t// in\n    tag_100:\n        /* \"#utility.yul\":4446:4450   */\n      0x20\n        /* \"#utility.yul\":4477:4479   */\n      0x1f\n        /* \"#utility.yul\":4466:4480   */\n      dup3\n      gt\n        /* \"#utility.yul\":4494:4495   */\n      0x01\n        /* \"#utility.yul\":4489:5138   */\n      dup2\n      eq\n      tag_103\n      jumpi\n        /* \"#utility.yul\":5182:5183   */\n      0x00\n        /* \"#utility.yul\":5199:5205   */\n      dup4\n        /* \"#utility.yul\":5196:5285   */\n      iszero\n      tag_104\n      jumpi\n      pop\n        /* \"#utility.yul\":5251:5270   */\n      dup5\n      dup3\n      add\n        /* \"#utility.yul\":5245:5271   */\n      mload\n        /* \"#utility.yul\":5196:5285   */\n    tag_104:\n      not(0x00)\n        /* \"#utility.yul\":4053:4054   */\n      0x03\n        /* \"#utility.yul\":4049:4060   */\n      dup6\n      swap1\n      shl\n        /* \"#utility.yul\":4045:4069   */\n      shr\n        /* \"#utility.yul\":4041:4070   */\n      not\n        /* \"#utility.yul\":4031:4071   */\n      and\n        /* \"#utility.yul\":4077:4078   */\n      0x01\n        /* \"#utility.yul\":4073:4084   */\n      dup5\n      swap1\n      shl\n        /* \"#utility.yul\":4028:4085   */\n      or\n        /* \"#utility.yul\":5298:5379   */\n      dup5\n      sstore\n        /* \"#utility.yul\":4459:5389   */\n      jump(tag_95)\n        /* \"#utility.yul\":4489:5138   */\n    tag_103:\n        /* \"#utility.yul\":3349:3350   */\n      0x00\n        /* \"#utility.yul\":3342:3356   */\n      dup5\n      dup2\n      mstore\n        /* \"#utility.yul\":3386:3390   */\n      0x20\n        /* \"#utility.yul\":3373:3391   */\n      dup2\n      keccak256\n      not(0x1f)\n        /* \"#utility.yul\":4525:4545   */\n      dup6\n      and\n      swap2\n        /* \"#utility.yul\":4643:4865   */\n    tag_107:\n        /* \"#utility.yul\":4657:4664   */\n      dup3\n        /* \"#utility.yul\":4654:4655   */\n      dup2\n        /* \"#utility.yul\":4651:4665   */\n      lt\n        /* \"#utility.yul\":4643:4865   */\n      iszero\n      tag_109\n      jumpi\n        /* \"#utility.yul\":4739:4758   */\n      dup8\n      dup6\n      add\n        /* \"#utility.yul\":4733:4759   */\n      mload\n        /* \"#utility.yul\":4718:4760   */\n      dup3\n      sstore\n        /* \"#utility.yul\":4846:4850   */\n      0x20\n        /* \"#utility.yul\":4831:4851   */\n      swap5\n      dup6\n      add\n      swap5\n        /* \"#utility.yul\":4799:4800   */\n      0x01\n        /* \"#utility.yul\":4787:4801   */\n      swap1\n      swap3\n      add\n      swap2\n        /* \"#utility.yul\":4673:4685   */\n      add\n        /* \"#utility.yul\":4643:4865   */\n      jump(tag_107)\n    tag_109:\n        /* \"#utility.yul\":4647:4650   */\n      pop\n        /* \"#utility.yul\":4893:4899   */\n      dup5\n        /* \"#utility.yul\":4884:4891   */\n      dup3\n        /* \"#utility.yul\":4881:4900   */\n      lt\n        /* \"#utility.yul\":4878:5079   */\n      iszero\n      tag_110\n      jumpi\n        /* \"#utility.yul\":4954:4973   */\n      dup7\n      dup5\n      add\n        /* \"#utility.yul\":4948:4974   */\n      mload\n      not(0x00)\n        /* \"#utility.yul\":5037:5038   */\n      0x03\n        /* \"#utility.yul\":5033:5047   */\n      dup8\n      swap1\n      shl\n        /* \"#utility.yul\":5049:5052   */\n      0xf8\n        /* \"#utility.yul\":5029:5053   */\n      and\n        /* \"#utility.yul\":5025:5062   */\n      shr\n        /* \"#utility.yul\":5021:5063   */\n      not\n        /* \"#utility.yul\":5006:5064   */\n      and\n        /* \"#utility.yul\":4991:5065   */\n      dup2\n      sstore\n        /* \"#utility.yul\":4878:5079   */\n    tag_110:\n      pop\n      pop\n      pop\n      pop\n        /* \"#utility.yul\":5125:5126   */\n      0x01\n        /* \"#utility.yul\":5109:5123   */\n      swap1\n      dup2\n      shl\n        /* \"#utility.yul\":5105:5127   */\n      add\n        /* \"#utility.yul\":5092:5128   */\n      swap1\n      sstore\n      pop\n        /* \"#utility.yul\":4096:5395   */\n      jump\t// out\n        /* \"#utility.yul\":5400:5703   */\n    tag_40:\n        /* \"#utility.yul\":5531:5534   */\n      0x00\n        /* \"#utility.yul\":5569:5575   */\n      dup3\n        /* \"#utility.yul\":5563:5576   */\n      mload\n        /* \"#utility.yul\":5615:5621   */\n      dup1\n        /* \"#utility.yul\":5608:5612   */\n      0x20\n        /* \"#utility.yul\":5600:5606   */\n      dup6\n        /* \"#utility.yul\":5596:5613   */\n      add\n        /* \"#utility.yul\":5591:5594   */\n      dup5\n        /* \"#utility.yul\":5585:5622   */\n      mcopy\n        /* \"#utility.yul\":5677:5678   */\n      0x00\n        /* \"#utility.yul\":5641:5657   */\n      swap3\n      add\n        /* \"#utility.yul\":5666:5679   */\n      swap2\n      dup3\n      mstore\n      pop\n        /* \"#utility.yul\":5641:5657   */\n      swap2\n        /* \"#utility.yul\":5400:5703   */\n      swap1\n      pop\n      jump\t// out\n        /* \"#utility.yul\":5708:6045   */\n    tag_51:\n      sub(shl(0x80, 0x01), 0x01)\n        /* \"#utility.yul\":5777:5819   */\n      dup2\n      dup2\n      and\n        /* \"#utility.yul\":5821:5863   */\n      dup4\n      dup3\n      and\n        /* \"#utility.yul\":5773:5864   */\n      add\n      swap1\n        /* \"#utility.yul\":5876:5919   */\n      dup2\n      gt\n        /* \"#utility.yul\":5873:6039   */\n      iszero\n      tag_113\n      jumpi\n        /* \"#utility.yul\":5961:5971   */\n      0x4e487b71\n        /* \"#utility.yul\":5956:5959   */\n      0xe0\n        /* \"#utility.yul\":5952:5972   */\n      shl\n        /* \"#utility.yul\":5949:5950   */\n      0x00\n        /* \"#utility.yul\":5942:5973   */\n      mstore\n        /* \"#utility.yul\":5996:6000   */\n      0x11\n        /* \"#utility.yul\":5993:5994   */\n      0x04\n        /* \"#utility.yul\":5986:6001   */\n      mstore\n        /* \"#utility.yul\":6024:6028   */\n      0x24\n        /* \"#utility.yul\":6021:6022   */\n      0x00\n        /* \"#utility.yul\":6014:6029   */\n      revert\n        /* \"#utility.yul\":5873:6039   */\n    tag_113:\n        /* \"#utility.yul\":5708:6045   */\n      swap3\n      swap2\n      pop\n      pop\n      jump\t// out\n\n    auxdata: 0xa2646970667358221220addc4eed1fcadda0a43b0dc61301d6c2b51ba04fa3cf36f90fe0270003e88edd64736f6c634300081e0033\n}\n",
				"bytecode": {
					"linkReferences": {},
					"object": "6080604052348015600e575f5ffd5b5061063f8061001c5f395ff3fe608060405234801561000f575f5ffd5b5060043610610060575f3560e01c80633b53afb814610064578063790418cc146100795780638bab8dd5146100a8578063bf119bdb146100dc578063dc6ff17a146100fd578063e41e141b14610110575b5f5ffd5b61007761007236600461038b565b610120565b005b5f5461008b906001600160801b031681565b6040516001600160801b0390911681526020015b60405180910390f35b61008b6100b63660046103d6565b80516020818301810180516002825292820191909301209152546001600160801b031681565b6100ef6100ea366004610410565b6101f0565b60405161009f929190610427565b61007761010b366004610463565b6102a4565b5f546001600160801b031661008b565b604080518082019091526001600160801b0383168152602081018281526001805480820182555f91909152825160029091027fb10e2d527612073b26eecdfd717e6a320cf44b4afac2b0732d9fcbe2b7fa0cf68101918255915190917fb10e2d527612073b26eecdfd717e6a320cf44b4afac2b0732d9fcbe2b7fa0cf701906101a99082610507565b505050816002826040516101bd91906105c2565b90815260405190819003602001902080546001600160801b03929092166001600160801b03199092169190911790555050565b600181815481106101ff575f80fd5b5f918252602090912060029091020180546001820180549193509061022390610483565b80601f016020809104026020016040519081016040528092919081815260200182805461024f90610483565b801561029a5780601f106102715761010080835404028352916020019161029a565b820191905f5260205f20905b81548152906001019060200180831161027d57829003601f168201915b5050505050905082565b6102af8160056105d8565b5f80546001600160801b0319166001600160801b039290921691909117905550565b80356001600160801b03811681146102e7575f5ffd5b919050565b634e487b7160e01b5f52604160045260245ffd5b5f82601f83011261030f575f5ffd5b813567ffffffffffffffff811115610329576103296102ec565b604051601f8201601f19908116603f0116810167ffffffffffffffff81118282101715610358576103586102ec565b60405281815283820160200185101561036f575f5ffd5b816020850160208301375f918101602001919091529392505050565b5f5f6040838503121561039c575f5ffd5b6103a5836102d1565b9150602083013567ffffffffffffffff8111156103c0575f5ffd5b6103cc85828601610300565b9150509250929050565b5f602082840312156103e6575f5ffd5b813567ffffffffffffffff8111156103fc575f5ffd5b61040884828501610300565b949350505050565b5f60208284031215610420575f5ffd5b5035919050565b828152604060208201525f82518060408401528060208501606085015e5f606082850101526060601f19601f8301168401019150509392505050565b5f60208284031215610473575f5ffd5b61047c826102d1565b9392505050565b600181811c9082168061049757607f821691505b6020821081036104b557634e487b7160e01b5f52602260045260245ffd5b50919050565b601f82111561050257805f5260205f20601f840160051c810160208510156104e05750805b601f840160051c820191505b818110156104ff575f81556001016104ec565b50505b505050565b815167ffffffffffffffff811115610521576105216102ec565b6105358161052f8454610483565b846104bb565b6020601f821160018114610567575f83156105505750848201515b5f19600385901b1c1916600184901b1784556104ff565b5f84815260208120601f198516915b828110156105965787850151825560209485019460019092019101610576565b50848210156105b357868401515f19600387901b60f8161c191681555b50505050600190811b01905550565b5f82518060208501845e5f920191825250919050565b6001600160801b03818116838216019081111561060357634e487b7160e01b5f52601160045260245ffd5b9291505056fea2646970667358221220addc4eed1fcadda0a43b0dc61301d6c2b51ba04fa3cf36f90fe0270003e88edd64736f6c634300081e0033",
					"opcodes": "PUSH1 0x80 PUSH1 0x40 MSTORE CALLVALUE DUP1 ISZERO PUSH1 0xE JUMPI PUSH0 PUSH0 REVERT JUMPDEST POP PUSH2 0x63F DUP1 PUSH2 0x1C PUSH0 CODECOPY PUSH0 RETURN INVALID PUSH1 0x80 PUSH1 0x40 MSTORE CALLVALUE DUP1 ISZERO PUSH2 0xF JUMPI PUSH0 PUSH0 REVERT JUMPDEST POP PUSH1 0x4 CALLDATASIZE LT PUSH2 0x60 JUMPI PUSH0 CALLDATALOAD PUSH1 0xE0 SHR DUP1 PUSH4 0x3B53AFB8 EQ PUSH2 0x64 JUMPI DUP1 PUSH4 0x790418CC EQ PUSH2 0x79 JUMPI DUP1 PUSH4 0x8BAB8DD5 EQ PUSH2 0xA8 JUMPI DUP1 PUSH4 0xBF119BDB EQ PUSH2 0xDC JUMPI DUP1 PUSH4 0xDC6FF17A EQ PUSH2 0xFD JUMPI DUP1 PUSH4 0xE41E141B EQ PUSH2 0x110 JUMPI JUMPDEST PUSH0 PUSH0 REVERT JUMPDEST PUSH2 0x77 PUSH2 0x72 CALLDATASIZE PUSH1 0x4 PUSH2 0x38B JUMP JUMPDEST PUSH2 0x120 JUMP JUMPDEST STOP JUMPDEST PUSH0 SLOAD PUSH2 0x8B SWAP1 PUSH1 0x1 PUSH1 0x1 PUSH1 0x80 SHL SUB AND DUP2 JUMP JUMPDEST PUSH1 0x40 MLOAD PUSH1 0x1 PUSH1 0x1 PUSH1 0x80 SHL SUB SWAP1 SWAP2 AND DUP2 MSTORE PUSH1 0x20 ADD JUMPDEST PUSH1 0x40 MLOAD DUP1 SWAP2 SUB SWAP1 RETURN JUMPDEST PUSH2 0x8B PUSH2 0xB6 CALLDATASIZE PUSH1 0x4 PUSH2 0x3D6 JUMP JUMPDEST DUP1 MLOAD PUSH1 0x20 DUP2 DUP4 ADD DUP2 ADD DUP1 MLOAD PUSH1 0x2 DUP3 MSTORE SWAP3 DUP3 ADD SWAP2 SWAP1 SWAP4 ADD KECCAK256 SWAP2 MSTORE SLOAD PUSH1 0x1 PUSH1 0x1 PUSH1 0x80 SHL SUB AND DUP2 JUMP JUMPDEST PUSH2 0xEF PUSH2 0xEA CALLDATASIZE PUSH1 0x4 PUSH2 0x410 JUMP JUMPDEST PUSH2 0x1F0 JUMP JUMPDEST PUSH1 0x40 MLOAD PUSH2 0x9F SWAP3 SWAP2 SWAP1 PUSH2 0x427 JUMP JUMPDEST PUSH2 0x77 PUSH2 0x10B CALLDATASIZE PUSH1 0x4 PUSH2 0x463 JUMP JUMPDEST PUSH2 0x2A4 JUMP JUMPDEST PUSH0 SLOAD PUSH1 0x1 PUSH1 0x1 PUSH1 0x80 SHL SUB AND PUSH2 0x8B JUMP JUMPDEST PUSH1 0x40 DUP1 MLOAD DUP1 DUP3 ADD SWAP1 SWAP2 MSTORE PUSH1 0x1 PUSH1 0x1 PUSH1 0x80 SHL SUB DUP4 AND DUP2 MSTORE PUSH1 0x20 DUP2 ADD DUP3 DUP2 MSTORE PUSH1 0x1 DUP1 SLOAD DUP1 DUP3 ADD DUP3 SSTORE PUSH0 SWAP2 SWAP1 SWAP2 MSTORE DUP3 MLOAD PUSH1 0x2 SWAP1 SWAP2 MUL PUSH32 0xB10E2D527612073B26EECDFD717E6A320CF44B4AFAC2B0732D9FCBE2B7FA0CF6 DUP2 ADD SWAP2 DUP3 SSTORE SWAP2 MLOAD SWAP1 SWAP2 PUSH32 0xB10E2D527612073B26EECDFD717E6A320CF44B4AFAC2B0732D9FCBE2B7FA0CF7 ADD SWAP1 PUSH2 0x1A9 SWAP1 DUP3 PUSH2 0x507 JUMP JUMPDEST POP POP POP DUP2 PUSH1 0x2 DUP3 PUSH1 0x40 MLOAD PUSH2 0x1BD SWAP2 SWAP1 PUSH2 0x5C2 JUMP JUMPDEST SWAP1 DUP2 MSTORE PUSH1 0x40 MLOAD SWAP1 DUP2 SWAP1 SUB PUSH1 0x20 ADD SWAP1 KECCAK256 DUP1 SLOAD PUSH1 0x1 PUSH1 0x1 PUSH1 0x80 SHL SUB SWAP3 SWAP1 SWAP3 AND PUSH1 0x1 PUSH1 0x1 PUSH1 0x80 SHL SUB NOT SWAP1 SWAP3 AND SWAP2 SWAP1 SWAP2 OR SWAP1 SSTORE POP POP JUMP JUMPDEST PUSH1 0x1 DUP2 DUP2 SLOAD DUP2 LT PUSH2 0x1FF JUMPI PUSH0 DUP1 REVERT JUMPDEST PUSH0 SWAP2 DUP3 MSTORE PUSH1 0x20 SWAP1 SWAP2 KECCAK256 PUSH1 0x2 SWAP1 SWAP2 MUL ADD DUP1 SLOAD PUSH1 0x1 DUP3 ADD DUP1 SLOAD SWAP2 SWAP4 POP SWAP1 PUSH2 0x223 SWAP1 PUSH2 0x483 JUMP JUMPDEST DUP1 PUSH1 0x1F ADD PUSH1 0x20 DUP1 SWAP2 DIV MUL PUSH1 0x20 ADD PUSH1 0x40 MLOAD SWAP1 DUP2 ADD PUSH1 0x40 MSTORE DUP1 SWAP3 SWAP2 SWAP1 DUP2 DUP2 MSTORE PUSH1 0x20 ADD DUP3 DUP1 SLOAD PUSH2 0x24F SWAP1 PUSH2 0x483 JUMP JUMPDEST DUP1 ISZERO PUSH2 0x29A JUMPI DUP1 PUSH1 0x1F LT PUSH2 0x271 JUMPI PUSH2 0x100 DUP1 DUP4 SLOAD DIV MUL DUP4 MSTORE SWAP2 PUSH1 0x20 ADD SWAP2 PUSH2 0x29A JUMP JUMPDEST DUP3 ADD SWAP2 SWAP1 PUSH0 MSTORE PUSH1 0x20 PUSH0 KECCAK256 SWAP1 JUMPDEST DUP2 SLOAD DUP2 MSTORE SWAP1 PUSH1 0x1 ADD SWAP1 PUSH1 0x20 ADD DUP1 DUP4 GT PUSH2 0x27D JUMPI DUP3 SWAP1 SUB PUSH1 0x1F AND DUP3 ADD SWAP2 JUMPDEST POP POP POP POP POP SWAP1 POP DUP3 JUMP JUMPDEST PUSH2 0x2AF DUP2 PUSH1 0x5 PUSH2 0x5D8 JUMP JUMPDEST PUSH0 DUP1 SLOAD PUSH1 0x1 PUSH1 0x1 PUSH1 0x80 SHL SUB NOT AND PUSH1 0x1 PUSH1 0x1 PUSH1 0x80 SHL SUB SWAP3 SWAP1 SWAP3 AND SWAP2 SWAP1 SWAP2 OR SWAP1 SSTORE POP JUMP JUMPDEST DUP1 CALLDATALOAD PUSH1 0x1 PUSH1 0x1 PUSH1 0x80 SHL SUB DUP2 AND DUP2 EQ PUSH2 0x2E7 JUMPI PUSH0 PUSH0 REVERT JUMPDEST SWAP2 SWAP1 POP JUMP JUMPDEST PUSH4 0x4E487B71 PUSH1 0xE0 SHL PUSH0 MSTORE PUSH1 0x41 PUSH1 0x4 MSTORE PUSH1 0x24 PUSH0 REVERT JUMPDEST PUSH0 DUP3 PUSH1 0x1F DUP4 ADD SLT PUSH2 0x30F JUMPI PUSH0 PUSH0 REVERT JUMPDEST DUP2 CALLDATALOAD PUSH8 0xFFFFFFFFFFFFFFFF DUP2 GT ISZERO PUSH2 0x329 JUMPI PUSH2 0x329 PUSH2 0x2EC JUMP JUMPDEST PUSH1 0x40 MLOAD PUSH1 0x1F DUP3 ADD PUSH1 0x1F NOT SWAP1 DUP2 AND PUSH1 0x3F ADD AND DUP2 ADD PUSH8 0xFFFFFFFFFFFFFFFF DUP2 GT DUP3 DUP3 LT OR ISZERO PUSH2 0x358 JUMPI PUSH2 0x358 PUSH2 0x2EC JUMP JUMPDEST PUSH1 0x40 MSTORE DUP2 DUP2 MSTORE DUP4 DUP3 ADD PUSH1 0x20 ADD DUP6 LT ISZERO PUSH2 0x36F JUMPI PUSH0 PUSH0 REVERT JUMPDEST DUP2 PUSH1 0x20 DUP6 ADD PUSH1 0x20 DUP4 ADD CALLDATACOPY PUSH0 SWAP2 DUP2 ADD PUSH1 0x20 ADD SWAP2 SWAP1 SWAP2 MSTORE SWAP4 SWAP3 POP POP POP JUMP JUMPDEST PUSH0 PUSH0 PUSH1 0x40 DUP4 DUP6 SUB SLT ISZERO PUSH2 0x39C JUMPI PUSH0 PUSH0 REVERT JUMPDEST PUSH2 0x3A5 DUP4 PUSH2 0x2D1 JUMP JUMPDEST SWAP2 POP PUSH1 0x20 DUP4 ADD CALLDATALOAD PUSH8 0xFFFFFFFFFFFFFFFF DUP2 GT ISZERO PUSH2 0x3C0 JUMPI PUSH0 PUSH0 REVERT JUMPDEST PUSH2 0x3CC DUP6 DUP3 DUP7 ADD PUSH2 0x300 JUMP JUMPDEST SWAP2 POP POP SWAP3 POP SWAP3 SWAP1 POP JUMP JUMPDEST PUSH0 PUSH1 0x20 DUP3 DUP5 SUB SLT ISZERO PUSH2 0x3E6 JUMPI PUSH0 PUSH0 REVERT JUMPDEST DUP2 CALLDATALOAD PUSH8 0xFFFFFFFFFFFFFFFF DUP2 GT ISZERO PUSH2 0x3FC JUMPI PUSH0 PUSH0 REVERT JUMPDEST PUSH2 0x408 DUP5 DUP3 DUP6 ADD PUSH2 0x300 JUMP JUMPDEST SWAP5 SWAP4 POP POP POP POP JUMP JUMPDEST PUSH0 PUSH1 0x20 DUP3 DUP5 SUB SLT ISZERO PUSH2 0x420 JUMPI PUSH0 PUSH0 REVERT JUMPDEST POP CALLDATALOAD SWAP2 SWAP1 POP JUMP JUMPDEST DUP3 DUP2 MSTORE PUSH1 0x40 PUSH1 0x20 DUP3 ADD MSTORE PUSH0 DUP3 MLOAD DUP1 PUSH1 0x40 DUP5 ADD MSTORE DUP1 PUSH1 0x20 DUP6 ADD PUSH1 0x60 DUP6 ADD MCOPY PUSH0 PUSH1 0x60 DUP3 DUP6 ADD ADD MSTORE PUSH1 0x60 PUSH1 0x1F NOT PUSH1 0x1F DUP4 ADD AND DUP5 ADD ADD SWAP2 POP POP SWAP4 SWAP3 POP POP POP JUMP JUMPDEST PUSH0 PUSH1 0x20 DUP3 DUP5 SUB SLT ISZERO PUSH2 0x473 JUMPI PUSH0 PUSH0 REVERT JUMPDEST PUSH2 0x47C DUP3 PUSH2 0x2D1 JUMP JUMPDEST SWAP4 SWAP3 POP POP POP JUMP JUMPDEST PUSH1 0x1 DUP2 DUP2 SHR SWAP1 DUP3 AND DUP1 PUSH2 0x497 JUMPI PUSH1 0x7F DUP3 AND SWAP2 POP JUMPDEST PUSH1 0x20 DUP3 LT DUP2 SUB PUSH2 0x4B5 JUMPI PUSH4 0x4E487B71 PUSH1 0xE0 SHL PUSH0 MSTORE PUSH1 0x22 PUSH1 0x4 MSTORE PUSH1 0x24 PUSH0 REVERT JUMPDEST POP SWAP2 SWAP1 POP JUMP JUMPDEST PUSH1 0x1F DUP3 GT ISZERO PUSH2 0x502 JUMPI DUP1 PUSH0 MSTORE PUSH1 0x20 PUSH0 KECCAK256 PUSH1 0x1F DUP5 ADD PUSH1 0x5 SHR DUP2 ADD PUSH1 0x20 DUP6 LT ISZERO PUSH2 0x4E0 JUMPI POP DUP1 JUMPDEST PUSH1 0x1F DUP5 ADD PUSH1 0x5 SHR DUP3 ADD SWAP2 POP JUMPDEST DUP2 DUP2 LT ISZERO PUSH2 0x4FF JUMPI PUSH0 DUP2 SSTORE PUSH1 0x1 ADD PUSH2 0x4EC JUMP JUMPDEST POP POP JUMPDEST POP POP POP JUMP JUMPDEST DUP2 MLOAD PUSH8 0xFFFFFFFFFFFFFFFF DUP2 GT ISZERO PUSH2 0x521 JUMPI PUSH2 0x521 PUSH2 0x2EC JUMP JUMPDEST PUSH2 0x535 DUP2 PUSH2 0x52F DUP5 SLOAD PUSH2 0x483 JUMP JUMPDEST DUP5 PUSH2 0x4BB JUMP JUMPDEST PUSH1 0x20 PUSH1 0x1F DUP3 GT PUSH1 0x1 DUP2 EQ PUSH2 0x567 JUMPI PUSH0 DUP4 ISZERO PUSH2 0x550 JUMPI POP DUP5 DUP3 ADD MLOAD JUMPDEST PUSH0 NOT PUSH1 0x3 DUP6 SWAP1 SHL SHR NOT AND PUSH1 0x1 DUP5 SWAP1 SHL OR DUP5 SSTORE PUSH2 0x4FF JUMP JUMPDEST PUSH0 DUP5 DUP2 MSTORE PUSH1 0x20 DUP2 KECCAK256 PUSH1 0x1F NOT DUP6 AND SWAP2 JUMPDEST DUP3 DUP2 LT ISZERO PUSH2 0x596 JUMPI DUP8 DUP6 ADD MLOAD DUP3 SSTORE PUSH1 0x20 SWAP5 DUP6 ADD SWAP5 PUSH1 0x1 SWAP1 SWAP3 ADD SWAP2 ADD PUSH2 0x576 JUMP JUMPDEST POP DUP5 DUP3 LT ISZERO PUSH2 0x5B3 JUMPI DUP7 DUP5 ADD MLOAD PUSH0 NOT PUSH1 0x3 DUP8 SWAP1 SHL PUSH1 0xF8 AND SHR NOT AND DUP2 SSTORE JUMPDEST POP POP POP POP PUSH1 0x1 SWAP1 DUP2 SHL ADD SWAP1 SSTORE POP JUMP JUMPDEST PUSH0 DUP3 MLOAD DUP1 PUSH1 0x20 DUP6 ADD DUP5 MCOPY PUSH0 SWAP3 ADD SWAP2 DUP3 MSTORE POP SWAP2 SWAP1 POP JUMP JUMPDEST PUSH1 0x1 PUSH1 0x1 PUSH1 0x80 SHL SUB DUP2 DUP2 AND DUP4 DUP3 AND ADD SWAP1 DUP2 GT ISZERO PUSH2 0x603 JUMPI PUSH4 0x4E487B71 PUSH1 0xE0 SHL PUSH0 MSTORE PUSH1 0x11 PUSH1 0x4 MSTORE PUSH1 0x24 PUSH0 REVERT JUMPDEST SWAP3 SWAP2 POP POP JUMP INVALID LOG2 PUSH5 0x6970667358 0x22 SLT KECCAK256 0xAD 0xDC 0x4E 0xED 0x1F 0xCA 0xDD LOG0 LOG4 EXTCODESIZE 0xD 0xC6 SGT ADD 0xD6 0xC2 0xB5 SHL LOG0 0x4F LOG3 0xCF CALLDATASIZE EXTDELEGATECALL 0xF RJUMP 0x2700 SUB 0xE8 DUP15 0xDD PUSH5 0x736F6C6343 STOP ADDMOD 0x1E STOP CALLER "
				},
				"gasEstimates": {
					"creation": {
						"codeDepositCost": "319800",
						"executionCost": "353",
						"totalCost": "320153"
					},
					"external": {
						"addpeople(uint128,string)": "infinite",
						"favoriteNum()": "2324",
						"listofpeople(uint256)": "infinite",
						"nameToFavoriteNumber(string)": "infinite",
						"reteieve()": "2406",
						"store(uint128)": "24738"
					}
				},
				"methodIdentifiers": {
					"addpeople(uint128,string)": "3b53afb8",
					"favoriteNum()": "790418cc",
					"listofpeople(uint256)": "bf119bdb",
					"nameToFavoriteNumber(string)": "8bab8dd5",
					"reteieve()": "e41e141b",
					"store(uint128)": "dc6ff17a"
				}
			},
			"storageLayout": {
				"storage": [
					{
						"astId": 23,
						"contract": "Contracts/AddFiveStorage.sol:AddFiveStore",
						"label": "favoriteNum",
						"offset": 0,
						"slot": "0",
						"type": "t_uint128"
					},
					{
						"astId": 32,
						"contract": "Contracts/AddFiveStorage.sol:AddFiveStore",
						"label": "listofpeople",
						"offset": 0,
						"slot": "1",
						"type": "t_array(t_struct(person)28_storage)dyn_storage"
					},
					{
						"astId": 36,
						"contract": "Contracts/AddFiveStorage.sol:AddFiveStore",
						"label": "nameToFavoriteNumber",
						"offset": 0,
						"slot": "2",
						"type": "t_mapping(t_string_memory_ptr,t_uint128)"
					}
				],
				"types": {
					"t_array(t_struct(person)28_storage)dyn_storage": {
						"base": "t_struct(person)28_storage",
						"encoding": "dynamic_array",
						"label": "struct SimpleStorage.person[]",
						"numberOfBytes": "32"
					},
					"t_mapping(t_string_memory_ptr,t_uint128)": {
						"encoding": "mapping",
						"key": "t_string_memory_ptr",
						"label": "mapping(string => uint128)",
						"numberOfBytes": "32",
						"value": "t_uint128"
					},
					"t_string_memory_ptr": {
						"encoding": "bytes",
						"label": "string",
						"numberOfBytes": "32"
					},
					"t_string_storage": {
						"encoding": "bytes",
						"label": "string",
						"numberOfBytes": "32"
					},
					"t_struct(person)28_storage": {
						"encoding": "inplace",
						"label": "struct SimpleStorage.person",
						"members": [
							{
								"astId": 25,
								"contract": "Contracts/AddFiveStorage.sol:AddFiveStore",
								"label": "favoriteNumber",
								"offset": 0,
								"slot": "0",
								"type": "t_uint256"
							},
							{
								"astId": 27,
								"contract": "Contracts/AddFiveStorage.sol:AddFiveStore",
								"label": "name",
								"offset": 0,
								"slot": "1",
								"type": "t_string_storage"
							}
						],
						"numberOfBytes": "64"
					},
					"t_uint128": {
						"encoding": "inplace",
						"label": "uint128",
						"numberOfBytes": "16"
					},
					"t_uint256": {
						"encoding": "inplace",
						"label": "uint256",
						"numberOfBytes": "32"
					}
				}
			},
			"userdoc": {
				"kind": "user",
				"methods": {},
				"version": 1
			}
		}
	}
}