{
	"FundMeProject/fundMe.sol": {
		"fundMe": {
			"abi": [
				{
					"inputs": [],
					"name": "fund",
					"outputs": [],
					"stateMutability": "payable",
					"type": "function"
				},
				{
					"inputs": [],
					"name": "getConversionRate",
					"outputs": [],
					"stateMutability": "nonpayable",
					"type": "function"
				},
				{
					"inputs": [],
					"name": "getPrise",
					"outputs": [],
					"stateMutability": "nonpayable",
					"type": "function"
				},
				{
					"inputs": [],
					"name": "minimumUsd",
					"outputs": [
						{
							"internalType": "uint256",
							"name": "",
							"type": "uint256"
						}
					],
					"stateMutability": "view",
					"type": "function"
				}
			],
			"devdoc": {
				"kind": "dev",
				"methods": {},
				"version": 1
			},
			"evm": {
				"assembly": "    /* \"FundMeProject/fundMe.sol\":670:1058  contract fundMe {... */\n  mstore(0x40, 0x80)\n    /* \"FundMeProject/fundMe.sol\":791:792  5 */\n  0x05\n    /* \"FundMeProject/fundMe.sol\":766:792  uint public minimumUsd = 5 */\n  0x00\n  sstore\n    /* \"FundMeProject/fundMe.sol\":670:1058  contract fundMe {... */\n  callvalue\n  dup1\n  iszero\n  tag_1\n  jumpi\n  revert(0x00, 0x00)\ntag_1:\n  pop\n  dataSize(sub_0)\n  dup1\n  dataOffset(sub_0)\n  0x00\n  codecopy\n  0x00\n  return\nstop\n\nsub_0: assembly {\n        /* \"FundMeProject/fundMe.sol\":670:1058  contract fundMe {... */\n      mstore(0x40, 0x80)\n      jumpi(tag_1, lt(calldatasize, 0x04))\n      shr(0xe0, calldataload(0x00))\n      dup1\n      0x098de820\n      eq\n      tag_2\n      jumpi\n      dup1\n      0xb60d4288\n      eq\n      tag_3\n      jumpi\n      dup1\n      0xbc6bdb98\n      eq\n      tag_4\n      jumpi\n      dup1\n      0xf36089ec\n      eq\n      tag_4\n      jumpi\n    tag_1:\n      revert(0x00, 0x00)\n        /* \"FundMeProject/fundMe.sol\":766:792  uint public minimumUsd = 5 */\n    tag_2:\n      callvalue\n      dup1\n      iszero\n      tag_6\n      jumpi\n      revert(0x00, 0x00)\n    tag_6:\n      pop\n      tag_7\n      sload(0x00)\n      dup2\n      jump\n    tag_7:\n      mload(0x40)\n        /* \"#utility.yul\":160:185   */\n      swap1\n      dup2\n      mstore\n        /* \"#utility.yul\":148:150   */\n      0x20\n        /* \"#utility.yul\":133:151   */\n      add\n        /* \"FundMeProject/fundMe.sol\":766:792  uint public minimumUsd = 5 */\n      mload(0x40)\n      dup1\n      swap2\n      sub\n      swap1\n      return\n        /* \"FundMeProject/fundMe.sol\":801:932  function fund() public payable {... */\n    tag_3:\n      tag_11\n      tag_12\n      jump\t// in\n    tag_11:\n      stop\n        /* \"FundMeProject/fundMe.sol\":980:1009  function getPrise() public {} */\n    tag_4:\n      callvalue\n      dup1\n      iszero\n      tag_11\n      jumpi\n      revert(0x00, 0x00)\n        /* \"FundMeProject/fundMe.sol\":801:932  function fund() public payable {... */\n    tag_12:\n        /* \"FundMeProject/fundMe.sol\":875:885  minimumUsd */\n      sload(0x00)\n        /* \"FundMeProject/fundMe.sol\":863:872  msg.value */\n      callvalue\n        /* \"FundMeProject/fundMe.sol\":863:885  msg.value > minimumUsd */\n      gt\n        /* \"FundMeProject/fundMe.sol\":855:914  require(msg.value > minimumUsd, \"didn't send enough mony!\") */\n      tag_20\n      jumpi\n      mload(0x40)\n      shl(0xe5, 0x461bcd)\n      dup2\n      mstore\n        /* \"#utility.yul\":398:400   */\n      0x20\n        /* \"FundMeProject/fundMe.sol\":855:914  require(msg.value > minimumUsd, \"didn't send enough mony!\") */\n      0x04\n      dup3\n      add\n        /* \"#utility.yul\":380:401   */\n      mstore\n        /* \"#utility.yul\":437:439   */\n      0x18\n        /* \"#utility.yul\":417:435   */\n      0x24\n      dup3\n      add\n        /* \"#utility.yul\":410:440   */\n      mstore\n        /* \"#utility.yul\":476:502   */\n      0x6469646e27742073656e6420656e6f756768206d6f6e79210000000000000000\n        /* \"#utility.yul\":456:474   */\n      0x44\n      dup3\n      add\n        /* \"#utility.yul\":449:503   */\n      mstore\n        /* \"#utility.yul\":520:538   */\n      0x64\n      add\n        /* \"FundMeProject/fundMe.sol\":855:914  require(msg.value > minimumUsd, \"didn't send enough mony!\") */\n      mload(0x40)\n      dup1\n      swap2\n      sub\n      swap1\n      revert\n    tag_20:\n        /* \"FundMeProject/fundMe.sol\":801:932  function fund() public payable {... */\n      jump\t// out\n\n    auxdata: 0xa264697066735822122039bb3c7cf80a1dd02ce3db51e298dcf6b3c8500c6002b58a47ed60c5307222ea64736f6c634300081e0033\n}\n",
				"bytecode": {
					"linkReferences": {},
					"object": "608060405260055f553480156012575f5ffd5b5060fe8061001f5f395ff3fe6080604052600436106039575f3560e01c8063098de82014603d578063b60d4288146061578063bc6bdb98146069578063f36089ec146069575b5f5ffd5b3480156047575f5ffd5b50604f5f5481565b60405190815260200160405180910390f35b60676073565b005b3480156067575f5ffd5b5f54341160c65760405162461bcd60e51b815260206004820152601860248201527f6469646e27742073656e6420656e6f756768206d6f6e79210000000000000000604482015260640160405180910390fd5b56fea264697066735822122039bb3c7cf80a1dd02ce3db51e298dcf6b3c8500c6002b58a47ed60c5307222ea64736f6c634300081e0033",
					"opcodes": "PUSH1 0x80 PUSH1 0x40 MSTORE PUSH1 0x5 PUSH0 SSTORE CALLVALUE DUP1 ISZERO PUSH1 0x12 JUMPI PUSH0 PUSH0 REVERT JUMPDEST POP PUSH1 0xFE DUP1 PUSH2 0x1F PUSH0 CODECOPY PUSH0 RETURN INVALID PUSH1 0x80 PUSH1 0x40 MSTORE PUSH1 0x4 CALLDATASIZE LT PUSH1 0x39 JUMPI PUSH0 CALLDATALOAD PUSH1 0xE0 SHR DUP1 PUSH4 0x98DE820 EQ PUSH1 0x3D JUMPI DUP1 PUSH4 0xB60D4288 EQ PUSH1 0x61 JUMPI DUP1 PUSH4 0xBC6BDB98 EQ PUSH1 0x69 JUMPI DUP1 PUSH4 0xF36089EC EQ PUSH1 0x69 JUMPI JUMPDEST PUSH0 PUSH0 REVERT JUMPDEST CALLVALUE DUP1 ISZERO PUSH1 0x47 JUMPI PUSH0 PUSH0 REVERT JUMPDEST POP PUSH1 0x4F PUSH0 SLOAD DUP2 JUMP JUMPDEST PUSH1 0x40 MLOAD SWAP1 DUP2 MSTORE PUSH1 0x20 ADD PUSH1 0x40 MLOAD DUP1 SWAP2 SUB SWAP1 RETURN JUMPDEST PUSH1 0x67 PUSH1 0x73 JUMP JUMPDEST STOP JUMPDEST CALLVALUE DUP1 ISZERO PUSH1 0x67 JUMPI PUSH0 PUSH0 REVERT JUMPDEST PUSH0 SLOAD CALLVALUE GT PUSH1 0xC6 JUMPI PUSH1 0x40 MLOAD PUSH3 0x461BCD PUSH1 0xE5 SHL DUP2 MSTORE PUSH1 0x20 PUSH1 0x4 DUP3 ADD MSTORE PUSH1 0x18 PUSH1 0x24 DUP3 ADD MSTORE PUSH32 0x6469646E27742073656E6420656E6F756768206D6F6E79210000000000000000 PUSH1 0x44 DUP3 ADD MSTORE PUSH1 0x64 ADD PUSH1 0x40 MLOAD DUP1 SWAP2 SUB SWAP1 REVERT JUMPDEST JUMP INVALID LOG2 PUSH5 0x6970667358 0x22 SLT KECCAK256 CODECOPY 0xBB EXTCODECOPY PUSH29 0xF80A1DD02CE3DB51E298DCF6B3C8500C6002B58A47ED60C5307222EA64 PUSH20 0x6F6C634300081E00330000000000000000000000 "
				},
				"gasEstimates": {
					"creation": {
						"codeDepositCost": "50800",
						"executionCost": "22202",
						"totalCost": "73002"
					},
					"external": {
						"fund()": "2335",
						"getConversionRate()": "164",
						"getPrise()": "142",
						"minimumUsd()": "2259"
					}
				},
				"methodIdentifiers": {
					"fund()": "b60d4288",
					"getConversionRate()": "f36089ec",
					"getPrise()": "bc6bdb98",
					"minimumUsd()": "098de820"
				}
			},
			"storageLayout": {
				"storage": [
					{
						"astId": 48,
						"contract": "FundMeProject/fundMe.sol:fundMe",
						"label": "minimumUsd",
						"offset": 0,
						"slot": "0",
						"type": "t_uint256"
					}
				],
				"types": {
					"t_uint256": {
						"encoding": "inplace",
						"label": "uint256",
						"numberOfBytes": "32"
					}
				}
			},
			"userdoc": {
				"kind": "user",
				"methods": {},
				"version": 1
			}
		}
	}
}