{
	"Contracts/StorageFactory.sol": {
		"StorageFactory": {
			"abi": [
				{
					"inputs": [],
					"name": "CreateSimpleStorageContract",
					"outputs": [],
					"stateMutability": "nonpayable",
					"type": "function"
				},
				{
					"inputs": [
						{
							"internalType": "uint256",
							"name": "",
							"type": "uint256"
						}
					],
					"name": "listOfSimpleStoragecontracts",
					"outputs": [
						{
							"internalType": "contract SimpleStorage",
							"name": "",
							"type": "address"
						}
					],
					"stateMutability": "view",
					"type": "function"
				},
				{
					"inputs": [
						{
							"internalType": "uint128",
							"name": "_simpleStorageIndex",
							"type": "uint128"
						}
					],
					"name": "sfGet",
					"outputs": [
						{
							"internalType": "uint128",
							"name": "",
							"type": "uint128"
						}
					],
					"stateMutability": "view",
					"type": "function"
				},
				{
					"inputs": [
						{
							"internalType": "uint128",
							"name": "_simpleStorageIndex",
							"type": "uint128"
						},
						{
							"internalType": "uint128",
							"name": "_newSimpleStorageNumber",
							"type": "uint128"
						}
					],
					"name": "sfStore",
					"outputs": [],
					"stateMutability": "nonpayable",
					"type": "function"
				}
			],
			"devdoc": {
				"kind": "dev",
				"methods": {},
				"version": 1
			},
			"evm": {
				"assembly": "    /* \"Contracts/StorageFactory.sol\":123:843  contract StorageFactory {... */\n  mstore(0x40, 0x80)\n  callvalue\n  dup1\n  iszero\n  tag_1\n  jumpi\n  revert(0x00, 0x00)\ntag_1:\n  pop\n  dataSize(sub_0)\n  dup1\n  dataOffset(sub_0)\n  0x00\n  codecopy\n  0x00\n  return\nstop\n\nsub_0: assembly {\n        /* \"Contracts/StorageFactory.sol\":123:843  contract StorageFactory {... */\n      mstore(0x40, 0x80)\n      callvalue\n      dup1\n      iszero\n      tag_1\n      jumpi\n      revert(0x00, 0x00)\n    tag_1:\n      pop\n      jumpi(tag_2, lt(calldatasize, 0x04))\n      shr(0xe0, calldataload(0x00))\n      dup1\n      0x2dc72184\n      eq\n      tag_3\n      jumpi\n      dup1\n      0x9be8e17e\n      eq\n      tag_4\n      jumpi\n      dup1\n      0x9fa05b28\n      eq\n      tag_5\n      jumpi\n      dup1\n      0xe2476bad\n      eq\n      tag_6\n      jumpi\n    tag_2:\n      revert(0x00, 0x00)\n        /* \"Contracts/StorageFactory.sol\":154:205  SimpleStorage[] public listOfSimpleStoragecontracts */\n    tag_3:\n      tag_7\n      tag_8\n      calldatasize\n      0x04\n      tag_9\n      jump\t// in\n    tag_8:\n      tag_10\n      jump\t// in\n    tag_7:\n      mload(0x40)\n      sub(shl(0xa0, 0x01), 0x01)\n        /* \"#utility.yul\":383:415   */\n      swap1\n      swap2\n      and\n        /* \"#utility.yul\":365:416   */\n      dup2\n      mstore\n        /* \"#utility.yul\":353:355   */\n      0x20\n        /* \"#utility.yul\":338:356   */\n      add\n        /* \"Contracts/StorageFactory.sol\":154:205  SimpleStorage[] public listOfSimpleStoragecontracts */\n    tag_11:\n      mload(0x40)\n      dup1\n      swap2\n      sub\n      swap1\n      return\n        /* \"Contracts/StorageFactory.sol\":675:838  function sfGet(uint128 _simpleStorageIndex) public view returns(uint128) {... */\n    tag_4:\n      tag_13\n      tag_14\n      calldatasize\n      0x04\n      tag_15\n      jump\t// in\n    tag_14:\n      tag_16\n      jump\t// in\n    tag_13:\n      mload(0x40)\n      sub(shl(0x80, 0x01), 0x01)\n        /* \"#utility.yul\":994:1041   */\n      swap1\n      swap2\n      and\n        /* \"#utility.yul\":976:1042   */\n      dup2\n      mstore\n        /* \"#utility.yul\":964:966   */\n      0x20\n        /* \"#utility.yul\":949:967   */\n      add\n        /* \"Contracts/StorageFactory.sol\":675:838  function sfGet(uint128 _simpleStorageIndex) public view returns(uint128) {... */\n      tag_11\n        /* \"#utility.yul\":830:1048   */\n      jump\n        /* \"Contracts/StorageFactory.sol\":214:409  function CreateSimpleStorageContract() public {... */\n    tag_5:\n      tag_19\n      tag_20\n      jump\t// in\n    tag_19:\n      stop\n        /* \"Contracts/StorageFactory.sol\":417:667  function sfStore(uint128 _simpleStorageIndex, uint128 _newSimpleStorageNumber) public {... */\n    tag_6:\n      tag_19\n      tag_22\n      calldatasize\n      0x04\n      tag_23\n      jump\t// in\n    tag_22:\n      tag_24\n      jump\t// in\n        /* \"Contracts/StorageFactory.sol\":154:205  SimpleStorage[] public listOfSimpleStoragecontracts */\n    tag_10:\n      0x00\n      dup2\n      dup2\n      sload\n      dup2\n      lt\n      tag_25\n      jumpi\n      0x00\n      dup1\n      revert\n    tag_25:\n      0x00\n      swap2\n      dup3\n      mstore\n      0x20\n      swap1\n      swap2\n      keccak256\n      add\n      sload\n      sub(shl(0xa0, 0x01), 0x01)\n      and\n      swap1\n      pop\n      dup2\n      jump\t// out\n        /* \"Contracts/StorageFactory.sol\":675:838  function sfGet(uint128 _simpleStorageIndex) public view returns(uint128) {... */\n    tag_16:\n        /* \"Contracts/StorageFactory.sol\":739:746  uint128 */\n      0x00\n        /* \"Contracts/StorageFactory.sol\":768:796  listOfSimpleStoragecontracts */\n      0x00\n        /* \"Contracts/StorageFactory.sol\":797:816  _simpleStorageIndex */\n      dup3\n      sub(shl(0x80, 0x01), 0x01)\n        /* \"Contracts/StorageFactory.sol\":768:817  listOfSimpleStoragecontracts[_simpleStorageIndex] */\n      and\n      dup2\n      sload\n      dup2\n      lt\n      tag_29\n      jumpi\n      tag_29\n      tag_30\n      jump\t// in\n    tag_29:\n      0x00\n      swap2\n      dup3\n      mstore\n      0x20\n      swap2\n      dup3\n      swap1\n      keccak256\n      add\n      sload\n        /* \"Contracts/StorageFactory.sol\":768:828  listOfSimpleStoragecontracts[_simpleStorageIndex].reteieve() */\n      0x40\n      dup1\n      mload\n      shl(0xe0, 0xe41e141b)\n      dup2\n      mstore\n      swap1\n      mload\n      sub(shl(0xa0, 0x01), 0x01)\n        /* \"Contracts/StorageFactory.sol\":768:817  listOfSimpleStoragecontracts[_simpleStorageIndex] */\n      swap1\n      swap3\n      and\n      swap3\n        /* \"Contracts/StorageFactory.sol\":768:826  listOfSimpleStoragecontracts[_simpleStorageIndex].reteieve */\n      0xe41e141b\n      swap3\n        /* \"Contracts/StorageFactory.sol\":768:828  listOfSimpleStoragecontracts[_simpleStorageIndex].reteieve() */\n      0x04\n      dup1\n      dup5\n      add\n      swap4\n      dup3\n      swap1\n      sub\n      add\n      dup2\n        /* \"Contracts/StorageFactory.sol\":768:817  listOfSimpleStoragecontracts[_simpleStorageIndex] */\n      dup7\n        /* \"Contracts/StorageFactory.sol\":768:828  listOfSimpleStoragecontracts[_simpleStorageIndex].reteieve() */\n      gas\n      staticcall\n      iszero\n      dup1\n      iszero\n      tag_33\n      jumpi\n      returndatacopy(0x00, 0x00, returndatasize)\n      revert(0x00, returndatasize)\n    tag_33:\n      pop\n      pop\n      pop\n      pop\n      mload(0x40)\n      returndatasize\n      not(0x1f)\n      0x1f\n      dup3\n      add\n      and\n      dup3\n      add\n      dup1\n      0x40\n      mstore\n      pop\n      dup2\n      add\n      swap1\n      tag_34\n      swap2\n      swap1\n      tag_35\n      jump\t// in\n    tag_34:\n        /* \"Contracts/StorageFactory.sol\":761:828  return listOfSimpleStoragecontracts[_simpleStorageIndex].reteieve() */\n      swap3\n        /* \"Contracts/StorageFactory.sol\":675:838  function sfGet(uint128 _simpleStorageIndex) public view returns(uint128) {... */\n      swap2\n      pop\n      pop\n      jump\t// out\n        /* \"Contracts/StorageFactory.sol\":214:409  function CreateSimpleStorageContract() public {... */\n    tag_20:\n        /* \"Contracts/StorageFactory.sol\":271:309  SimpleStorage newSimpleStorageContract */\n      0x00\n        /* \"Contracts/StorageFactory.sol\":312:331  new SimpleStorage() */\n      mload(0x40)\n      tag_37\n      swap1\n      tag_38\n      jump\t// in\n    tag_37:\n      mload(0x40)\n      dup1\n      swap2\n      sub\n      swap1\n      0x00\n      create\n      dup1\n      iszero\n      dup1\n      iszero\n      tag_39\n      jumpi\n      returndatacopy(0x00, 0x00, returndatasize)\n      revert(0x00, returndatasize)\n    tag_39:\n      pop\n        /* \"Contracts/StorageFactory.sol\":342:370  listOfSimpleStoragecontracts */\n      0x00\n        /* \"Contracts/StorageFactory.sol\":342:401  listOfSimpleStoragecontracts.push(newSimpleStorageContract) */\n      dup1\n      sload\n      0x01\n      dup2\n      add\n      dup3\n      sstore\n      swap1\n      dup1\n      mstore\n      0x290decd9548b62a8d60345a988386fc84ba6bc95484008f6362f93160ef3e563\n      add\n      dup1\n      sload\n      not(sub(shl(0xa0, 0x01), 0x01))\n      and\n      sub(shl(0xa0, 0x01), 0x01)\n      swap3\n      swap1\n      swap3\n      and\n      swap2\n      swap1\n      swap2\n      or\n      swap1\n      sstore\n      pop\n        /* \"Contracts/StorageFactory.sol\":214:409  function CreateSimpleStorageContract() public {... */\n      jump\t// out\n        /* \"Contracts/StorageFactory.sol\":417:667  function sfStore(uint128 _simpleStorageIndex, uint128 _newSimpleStorageNumber) public {... */\n    tag_24:\n        /* \"Contracts/StorageFactory.sol\":577:605  listOfSimpleStoragecontracts */\n      0x00\n        /* \"Contracts/StorageFactory.sol\":606:625  _simpleStorageIndex */\n      dup3\n      sub(shl(0x80, 0x01), 0x01)\n        /* \"Contracts/StorageFactory.sol\":577:626  listOfSimpleStoragecontracts[_simpleStorageIndex] */\n      and\n      dup2\n      sload\n      dup2\n      lt\n      tag_43\n      jumpi\n      tag_43\n      tag_30\n      jump\t// in\n    tag_43:\n      0x00\n      swap2\n      dup3\n      mstore\n      0x20\n      swap1\n      swap2\n      keccak256\n      add\n      sload\n        /* \"Contracts/StorageFactory.sol\":577:657  listOfSimpleStoragecontracts[_simpleStorageIndex].store(_newSimpleStorageNumber) */\n      mload(0x40)\n      shl(0xe1, 0x6e37f8bd)\n      dup2\n      mstore\n      sub(shl(0x80, 0x01), 0x01)\n        /* \"#utility.yul\":994:1041   */\n      dup4\n      and\n        /* \"Contracts/StorageFactory.sol\":577:657  listOfSimpleStoragecontracts[_simpleStorageIndex].store(_newSimpleStorageNumber) */\n      0x04\n      dup3\n      add\n        /* \"#utility.yul\":976:1042   */\n      mstore\n      sub(shl(0xa0, 0x01), 0x01)\n        /* \"Contracts/StorageFactory.sol\":577:626  listOfSimpleStoragecontracts[_simpleStorageIndex] */\n      swap1\n      swap2\n      and\n      swap1\n        /* \"Contracts/StorageFactory.sol\":577:632  listOfSimpleStoragecontracts[_simpleStorageIndex].store */\n      0xdc6ff17a\n      swap1\n        /* \"#utility.yul\":949:967   */\n      0x24\n      add\n        /* \"Contracts/StorageFactory.sol\":577:657  listOfSimpleStoragecontracts[_simpleStorageIndex].store(_newSimpleStorageNumber) */\n      0x00\n      mload(0x40)\n      dup1\n      dup4\n      sub\n      dup2\n      0x00\n      dup8\n      dup1\n      extcodesize\n      iszero\n      dup1\n      iszero\n      tag_46\n      jumpi\n      revert(0x00, 0x00)\n    tag_46:\n      pop\n      gas\n      call\n      iszero\n      dup1\n      iszero\n      tag_48\n      jumpi\n      returndatacopy(0x00, 0x00, returndatasize)\n      revert(0x00, returndatasize)\n    tag_48:\n      pop\n      pop\n      pop\n      pop\n        /* \"Contracts/StorageFactory.sol\":417:667  function sfStore(uint128 _simpleStorageIndex, uint128 _newSimpleStorageNumber) public {... */\n      pop\n      pop\n      jump\t// out\n    tag_38:\n      dataSize(sub_0)\n      dup1\n      dataOffset(sub_0)\n      dup4\n      codecopy\n      add\n      swap1\n      jump\t// out\n        /* \"#utility.yul\":14:194   */\n    tag_9:\n        /* \"#utility.yul\":73:79   */\n      0x00\n        /* \"#utility.yul\":126:128   */\n      0x20\n        /* \"#utility.yul\":114:123   */\n      dup3\n        /* \"#utility.yul\":105:112   */\n      dup5\n        /* \"#utility.yul\":101:124   */\n      sub\n        /* \"#utility.yul\":97:129   */\n      slt\n        /* \"#utility.yul\":94:146   */\n      iszero\n      tag_52\n      jumpi\n        /* \"#utility.yul\":142:143   */\n      0x00\n        /* \"#utility.yul\":139:140   */\n      0x00\n        /* \"#utility.yul\":132:144   */\n      revert\n        /* \"#utility.yul\":94:146   */\n    tag_52:\n      pop\n        /* \"#utility.yul\":165:188   */\n      calldataload\n      swap2\n        /* \"#utility.yul\":14:194   */\n      swap1\n      pop\n      jump\t// out\n        /* \"#utility.yul\":427:573   */\n    tag_49:\n      sub(shl(0x80, 0x01), 0x01)\n        /* \"#utility.yul\":506:511   */\n      dup2\n        /* \"#utility.yul\":502:548   */\n      and\n        /* \"#utility.yul\":495:500   */\n      dup2\n        /* \"#utility.yul\":492:549   */\n      eq\n        /* \"#utility.yul\":482:567   */\n      tag_55\n      jumpi\n        /* \"#utility.yul\":563:564   */\n      0x00\n        /* \"#utility.yul\":560:561   */\n      0x00\n        /* \"#utility.yul\":553:565   */\n      revert\n        /* \"#utility.yul\":482:567   */\n    tag_55:\n        /* \"#utility.yul\":427:573   */\n      pop\n      jump\t// out\n        /* \"#utility.yul\":578:825   */\n    tag_15:\n        /* \"#utility.yul\":637:643   */\n      0x00\n        /* \"#utility.yul\":690:692   */\n      0x20\n        /* \"#utility.yul\":678:687   */\n      dup3\n        /* \"#utility.yul\":669:676   */\n      dup5\n        /* \"#utility.yul\":665:688   */\n      sub\n        /* \"#utility.yul\":661:693   */\n      slt\n        /* \"#utility.yul\":658:710   */\n      iszero\n      tag_57\n      jumpi\n        /* \"#utility.yul\":706:707   */\n      0x00\n        /* \"#utility.yul\":703:704   */\n      0x00\n        /* \"#utility.yul\":696:708   */\n      revert\n        /* \"#utility.yul\":658:710   */\n    tag_57:\n        /* \"#utility.yul\":745:754   */\n      dup2\n        /* \"#utility.yul\":732:755   */\n      calldataload\n        /* \"#utility.yul\":764:795   */\n      tag_58\n        /* \"#utility.yul\":789:794   */\n      dup2\n        /* \"#utility.yul\":764:795   */\n      tag_49\n      jump\t// in\n    tag_58:\n        /* \"#utility.yul\":814:819   */\n      swap4\n        /* \"#utility.yul\":578:825   */\n      swap3\n      pop\n      pop\n      pop\n      jump\t// out\n        /* \"#utility.yul\":1053:1441   */\n    tag_23:\n        /* \"#utility.yul\":1121:1127   */\n      0x00\n        /* \"#utility.yul\":1129:1135   */\n      0x00\n        /* \"#utility.yul\":1182:1184   */\n      0x40\n        /* \"#utility.yul\":1170:1179   */\n      dup4\n        /* \"#utility.yul\":1161:1168   */\n      dup6\n        /* \"#utility.yul\":1157:1180   */\n      sub\n        /* \"#utility.yul\":1153:1185   */\n      slt\n        /* \"#utility.yul\":1150:1202   */\n      iszero\n      tag_61\n      jumpi\n        /* \"#utility.yul\":1198:1199   */\n      0x00\n        /* \"#utility.yul\":1195:1196   */\n      0x00\n        /* \"#utility.yul\":1188:1200   */\n      revert\n        /* \"#utility.yul\":1150:1202   */\n    tag_61:\n        /* \"#utility.yul\":1237:1246   */\n      dup3\n        /* \"#utility.yul\":1224:1247   */\n      calldataload\n        /* \"#utility.yul\":1256:1287   */\n      tag_62\n        /* \"#utility.yul\":1281:1286   */\n      dup2\n        /* \"#utility.yul\":1256:1287   */\n      tag_49\n      jump\t// in\n    tag_62:\n        /* \"#utility.yul\":1306:1311   */\n      swap2\n      pop\n        /* \"#utility.yul\":1363:1365   */\n      0x20\n        /* \"#utility.yul\":1348:1366   */\n      dup4\n      add\n        /* \"#utility.yul\":1335:1367   */\n      calldataload\n        /* \"#utility.yul\":1376:1409   */\n      tag_63\n        /* \"#utility.yul\":1335:1367   */\n      dup2\n        /* \"#utility.yul\":1376:1409   */\n      tag_49\n      jump\t// in\n    tag_63:\n        /* \"#utility.yul\":1428:1435   */\n      dup1\n        /* \"#utility.yul\":1418:1435   */\n      swap2\n      pop\n      pop\n        /* \"#utility.yul\":1053:1441   */\n      swap3\n      pop\n      swap3\n      swap1\n      pop\n      jump\t// out\n        /* \"#utility.yul\":1446:1573   */\n    tag_30:\n        /* \"#utility.yul\":1507:1517   */\n      0x4e487b71\n        /* \"#utility.yul\":1502:1505   */\n      0xe0\n        /* \"#utility.yul\":1498:1518   */\n      shl\n        /* \"#utility.yul\":1495:1496   */\n      0x00\n        /* \"#utility.yul\":1488:1519   */\n      mstore\n        /* \"#utility.yul\":1538:1542   */\n      0x32\n        /* \"#utility.yul\":1535:1536   */\n      0x04\n        /* \"#utility.yul\":1528:1543   */\n      mstore\n        /* \"#utility.yul\":1562:1566   */\n      0x24\n        /* \"#utility.yul\":1559:1560   */\n      0x00\n        /* \"#utility.yul\":1552:1567   */\n      revert\n        /* \"#utility.yul\":1578:1829   */\n    tag_35:\n        /* \"#utility.yul\":1648:1654   */\n      0x00\n        /* \"#utility.yul\":1701:1703   */\n      0x20\n        /* \"#utility.yul\":1689:1698   */\n      dup3\n        /* \"#utility.yul\":1680:1687   */\n      dup5\n        /* \"#utility.yul\":1676:1699   */\n      sub\n        /* \"#utility.yul\":1672:1704   */\n      slt\n        /* \"#utility.yul\":1669:1721   */\n      iszero\n      tag_66\n      jumpi\n        /* \"#utility.yul\":1717:1718   */\n      0x00\n        /* \"#utility.yul\":1714:1715   */\n      0x00\n        /* \"#utility.yul\":1707:1719   */\n      revert\n        /* \"#utility.yul\":1669:1721   */\n    tag_66:\n        /* \"#utility.yul\":1749:1758   */\n      dup2\n        /* \"#utility.yul\":1743:1759   */\n      mload\n        /* \"#utility.yul\":1768:1799   */\n      tag_58\n        /* \"#utility.yul\":1793:1798   */\n      dup2\n        /* \"#utility.yul\":1768:1799   */\n      tag_49\n      jump\t// in\n    stop\n\n    sub_0: assembly {\n            /* \"Contracts/SimpleStorage.sol\":61:754  contract SimpleStorage {... */\n          mstore(0x40, 0x80)\n          callvalue\n          dup1\n          iszero\n          tag_1\n          jumpi\n          revert(0x00, 0x00)\n        tag_1:\n          pop\n          dataSize(sub_0)\n          dup1\n          dataOffset(sub_0)\n          0x00\n          codecopy\n          0x00\n          return\n        stop\n\n        sub_0: assembly {\n                /* \"Contracts/SimpleStorage.sol\":61:754  contract SimpleStorage {... */\n              mstore(0x40, 0x80)\n              callvalue\n              dup1\n              iszero\n              tag_1\n              jumpi\n              revert(0x00, 0x00)\n            tag_1:\n              pop\n              jumpi(tag_2, lt(calldatasize, 0x04))\n              shr(0xe0, calldataload(0x00))\n              dup1\n              0x3b53afb8\n              eq\n              tag_3\n              jumpi\n              dup1\n              0x790418cc\n              eq\n              tag_4\n              jumpi\n              dup1\n              0x8bab8dd5\n              eq\n              tag_5\n              jumpi\n              dup1\n              0xbf119bdb\n              eq\n              tag_6\n              jumpi\n              dup1\n              0xdc6ff17a\n              eq\n              tag_7\n              jumpi\n              dup1\n              0xe41e141b\n              eq\n              tag_8\n              jumpi\n            tag_2:\n              revert(0x00, 0x00)\n                /* \"Contracts/SimpleStorage.sol\":563:751  function addpeople(uint128 _favoriteNumber, string memory _name) public {... */\n            tag_3:\n              tag_9\n              tag_10\n              calldatasize\n              0x04\n              tag_11\n              jump\t// in\n            tag_10:\n              tag_12\n              jump\t// in\n            tag_9:\n              stop\n                /* \"Contracts/SimpleStorage.sol\":93:119  uint128 public favoriteNum */\n            tag_4:\n              sload(0x00)\n              tag_13\n              swap1\n              sub(shl(0x80, 0x01), 0x01)\n              and\n              dup2\n              jump\n            tag_13:\n              mload(0x40)\n              sub(shl(0x80, 0x01), 0x01)\n                /* \"#utility.yul\":1635:1682   */\n              swap1\n              swap2\n              and\n                /* \"#utility.yul\":1617:1683   */\n              dup2\n              mstore\n                /* \"#utility.yul\":1605:1607   */\n              0x20\n                /* \"#utility.yul\":1590:1608   */\n              add\n                /* \"Contracts/SimpleStorage.sol\":93:119  uint128 public favoriteNum */\n            tag_15:\n              mload(0x40)\n              dup1\n              swap2\n              sub\n              swap1\n              return\n                /* \"Contracts/SimpleStorage.sol\":300:354  mapping(string => uint128) public nameToFavoriteNumber */\n            tag_5:\n              tag_13\n              tag_18\n              calldatasize\n              0x04\n              tag_19\n              jump\t// in\n            tag_18:\n              dup1\n              mload\n              0x20\n              dup2\n              dup4\n              add\n              dup2\n              add\n              dup1\n              mload\n              0x02\n              dup3\n              mstore\n              swap3\n              dup3\n              add\n              swap2\n              swap1\n              swap4\n              add\n              keccak256\n              swap2\n              mstore\n              sload\n              sub(shl(0x80, 0x01), 0x01)\n              and\n              dup2\n              jump\n                /* \"Contracts/SimpleStorage.sol\":265:293  person[] public listofpeople */\n            tag_6:\n              tag_22\n              tag_23\n              calldatasize\n              0x04\n              tag_24\n              jump\t// in\n            tag_23:\n              tag_25\n              jump\t// in\n            tag_22:\n              mload(0x40)\n              tag_15\n              swap3\n              swap2\n              swap1\n              tag_27\n              jump\t// in\n                /* \"Contracts/SimpleStorage.sol\":363:461  function store(uint128 _favoriteNum) public virtual  {... */\n            tag_7:\n              tag_9\n              tag_29\n              calldatasize\n              0x04\n              tag_30\n              jump\t// in\n            tag_29:\n                /* \"Contracts/SimpleStorage.sol\":427:438  favoriteNum */\n              0x00\n                /* \"Contracts/SimpleStorage.sol\":427:453  favoriteNum = _favoriteNum */\n              dup1\n              sload\n              not(sub(shl(0x80, 0x01), 0x01))\n              and\n              sub(shl(0x80, 0x01), 0x01)\n              swap3\n              swap1\n              swap3\n              and\n              swap2\n              swap1\n              swap2\n              or\n              swap1\n              sstore\n                /* \"Contracts/SimpleStorage.sol\":363:461  function store(uint128 _favoriteNum) public virtual  {... */\n              jump\n                /* \"Contracts/SimpleStorage.sol\":473:555  function reteieve() public view returns(uint128) {... */\n            tag_8:\n                /* \"Contracts/SimpleStorage.sol\":513:520  uint128 */\n              0x00\n                /* \"Contracts/SimpleStorage.sol\":536:547  favoriteNum */\n              sload\n              sub(shl(0x80, 0x01), 0x01)\n              and\n                /* \"Contracts/SimpleStorage.sol\":473:555  function reteieve() public view returns(uint128) {... */\n              jump(tag_13)\n                /* \"Contracts/SimpleStorage.sol\":563:751  function addpeople(uint128 _favoriteNumber, string memory _name) public {... */\n            tag_12:\n                /* \"Contracts/SimpleStorage.sol\":660:690  person(_favoriteNumber, _name) */\n              0x40\n              dup1\n              mload\n              dup1\n              dup3\n              add\n              swap1\n              swap2\n              mstore\n              sub(shl(0x80, 0x01), 0x01)\n              dup4\n              and\n              dup2\n              mstore\n              0x20\n              dup2\n              add\n              dup3\n              dup2\n              mstore\n                /* \"Contracts/SimpleStorage.sol\":642:654  listofpeople */\n              0x01\n                /* \"Contracts/SimpleStorage.sol\":642:691  listofpeople.push(person(_favoriteNumber, _name)) */\n              dup1\n              sload\n              dup1\n              dup3\n              add\n              dup3\n              sstore\n              0x00\n              swap2\n              swap1\n              swap2\n              mstore\n              dup3\n              mload\n              0x02\n              swap1\n              swap2\n              mul\n              0xb10e2d527612073b26eecdfd717e6a320cf44b4afac2b0732d9fcbe2b7fa0cf6\n              dup2\n              add\n              swap2\n              dup3\n              sstore\n              swap2\n              mload\n              swap1\n              swap2\n              0xb10e2d527612073b26eecdfd717e6a320cf44b4afac2b0732d9fcbe2b7fa0cf7\n              add\n              swap1\n              tag_37\n              swap1\n              dup3\n              tag_38\n              jump\t// in\n            tag_37:\n              pop\n              pop\n              pop\n                /* \"Contracts/SimpleStorage.sol\":728:743  _favoriteNumber */\n              dup2\n                /* \"Contracts/SimpleStorage.sol\":698:718  nameToFavoriteNumber */\n              0x02\n                /* \"Contracts/SimpleStorage.sol\":719:724  _name */\n              dup3\n                /* \"Contracts/SimpleStorage.sol\":698:725  nameToFavoriteNumber[_name] */\n              mload(0x40)\n              tag_39\n              swap2\n              swap1\n              tag_40\n              jump\t// in\n            tag_39:\n              swap1\n              dup2\n              mstore\n              mload(0x40)\n              swap1\n              dup2\n              swap1\n              sub\n              0x20\n              add\n              swap1\n              keccak256\n                /* \"Contracts/SimpleStorage.sol\":698:743  nameToFavoriteNumber[_name] = _favoriteNumber */\n              dup1\n              sload\n              sub(shl(0x80, 0x01), 0x01)\n              swap3\n              swap1\n              swap3\n              and\n              not(sub(shl(0x80, 0x01), 0x01))\n              swap1\n              swap3\n              and\n              swap2\n              swap1\n              swap2\n              or\n              swap1\n              sstore\n              pop\n              pop\n                /* \"Contracts/SimpleStorage.sol\":563:751  function addpeople(uint128 _favoriteNumber, string memory _name) public {... */\n              jump\t// out\n                /* \"Contracts/SimpleStorage.sol\":265:293  person[] public listofpeople */\n            tag_25:\n              0x01\n              dup2\n              dup2\n              sload\n              dup2\n              lt\n              tag_41\n              jumpi\n              0x00\n              dup1\n              revert\n            tag_41:\n              0x00\n              swap2\n              dup3\n              mstore\n              0x20\n              swap1\n              swap2\n              keccak256\n              0x02\n              swap1\n              swap2\n              mul\n              add\n              dup1\n              sload\n              0x01\n              dup3\n              add\n              dup1\n              sload\n              swap2\n              swap4\n              pop\n              swap1\n              tag_43\n              swap1\n              tag_44\n              jump\t// in\n            tag_43:\n              dup1\n              0x1f\n              add\n              0x20\n              dup1\n              swap2\n              div\n              mul\n              0x20\n              add\n              mload(0x40)\n              swap1\n              dup2\n              add\n              0x40\n              mstore\n              dup1\n              swap3\n              swap2\n              swap1\n              dup2\n              dup2\n              mstore\n              0x20\n              add\n              dup3\n              dup1\n              sload\n              tag_45\n              swap1\n              tag_44\n              jump\t// in\n            tag_45:\n              dup1\n              iszero\n              tag_46\n              jumpi\n              dup1\n              0x1f\n              lt\n              tag_47\n              jumpi\n              0x0100\n              dup1\n              dup4\n              sload\n              div\n              mul\n              dup4\n              mstore\n              swap2\n              0x20\n              add\n              swap2\n              jump(tag_46)\n            tag_47:\n              dup3\n              add\n              swap2\n              swap1\n              0x00\n              mstore\n              keccak256(0x00, 0x20)\n              swap1\n            tag_48:\n              dup2\n              sload\n              dup2\n              mstore\n              swap1\n              0x01\n              add\n              swap1\n              0x20\n              add\n              dup1\n              dup4\n              gt\n              tag_48\n              jumpi\n              dup3\n              swap1\n              sub\n              0x1f\n              and\n              dup3\n              add\n              swap2\n            tag_46:\n              pop\n              pop\n              pop\n              pop\n              pop\n              swap1\n              pop\n              dup3\n              jump\t// out\n                /* \"#utility.yul\":14:202   */\n            tag_51:\n                /* \"#utility.yul\":82:102   */\n              dup1\n              calldataload\n              sub(shl(0x80, 0x01), 0x01)\n                /* \"#utility.yul\":131:177   */\n              dup2\n              and\n                /* \"#utility.yul\":121:178   */\n              dup2\n              eq\n                /* \"#utility.yul\":111:196   */\n              tag_59\n              jumpi\n                /* \"#utility.yul\":192:193   */\n              0x00\n                /* \"#utility.yul\":189:190   */\n              0x00\n                /* \"#utility.yul\":182:194   */\n              revert\n                /* \"#utility.yul\":111:196   */\n            tag_59:\n                /* \"#utility.yul\":14:202   */\n              swap2\n              swap1\n              pop\n              jump\t// out\n                /* \"#utility.yul\":207:334   */\n            tag_52:\n                /* \"#utility.yul\":268:278   */\n              0x4e487b71\n                /* \"#utility.yul\":263:266   */\n              0xe0\n                /* \"#utility.yul\":259:279   */\n              shl\n                /* \"#utility.yul\":256:257   */\n              0x00\n                /* \"#utility.yul\":249:280   */\n              mstore\n                /* \"#utility.yul\":299:303   */\n              0x41\n                /* \"#utility.yul\":296:297   */\n              0x04\n                /* \"#utility.yul\":289:304   */\n              mstore\n                /* \"#utility.yul\":323:327   */\n              0x24\n                /* \"#utility.yul\":320:321   */\n              0x00\n                /* \"#utility.yul\":313:328   */\n              revert\n                /* \"#utility.yul\":339:1065   */\n            tag_53:\n                /* \"#utility.yul\":382:387   */\n              0x00\n                /* \"#utility.yul\":435:438   */\n              dup3\n                /* \"#utility.yul\":428:432   */\n              0x1f\n                /* \"#utility.yul\":420:426   */\n              dup4\n                /* \"#utility.yul\":416:433   */\n              add\n                /* \"#utility.yul\":412:439   */\n              slt\n                /* \"#utility.yul\":402:457   */\n              tag_62\n              jumpi\n                /* \"#utility.yul\":453:454   */\n              0x00\n                /* \"#utility.yul\":450:451   */\n              0x00\n                /* \"#utility.yul\":443:455   */\n              revert\n                /* \"#utility.yul\":402:457   */\n            tag_62:\n                /* \"#utility.yul\":493:499   */\n              dup2\n                /* \"#utility.yul\":480:500   */\n              calldataload\n                /* \"#utility.yul\":523:541   */\n              0xffffffffffffffff\n                /* \"#utility.yul\":515:521   */\n              dup2\n                /* \"#utility.yul\":512:542   */\n              gt\n                /* \"#utility.yul\":509:565   */\n              iszero\n              tag_64\n              jumpi\n                /* \"#utility.yul\":545:563   */\n              tag_64\n              tag_52\n              jump\t// in\n            tag_64:\n                /* \"#utility.yul\":594:596   */\n              0x40\n                /* \"#utility.yul\":588:597   */\n              mload\n                /* \"#utility.yul\":686:688   */\n              0x1f\n                /* \"#utility.yul\":648:665   */\n              dup3\n              add\n              not(0x1f)\n                /* \"#utility.yul\":644:675   */\n              swap1\n              dup2\n              and\n                /* \"#utility.yul\":677:679   */\n              0x3f\n                /* \"#utility.yul\":640:680   */\n              add\n                /* \"#utility.yul\":636:690   */\n              and\n                /* \"#utility.yul\":624:691   */\n              dup2\n              add\n                /* \"#utility.yul\":721:739   */\n              0xffffffffffffffff\n                /* \"#utility.yul\":706:740   */\n              dup2\n              gt\n                /* \"#utility.yul\":742:764   */\n              dup3\n              dup3\n              lt\n                /* \"#utility.yul\":703:765   */\n              or\n                /* \"#utility.yul\":700:788   */\n              iszero\n              tag_66\n              jumpi\n                /* \"#utility.yul\":768:786   */\n              tag_66\n              tag_52\n              jump\t// in\n            tag_66:\n                /* \"#utility.yul\":804:806   */\n              0x40\n                /* \"#utility.yul\":797:819   */\n              mstore\n                /* \"#utility.yul\":828:850   */\n              dup2\n              dup2\n              mstore\n                /* \"#utility.yul\":869:888   */\n              dup4\n              dup3\n              add\n                /* \"#utility.yul\":890:894   */\n              0x20\n                /* \"#utility.yul\":865:895   */\n              add\n                /* \"#utility.yul\":862:901   */\n              dup6\n              lt\n                /* \"#utility.yul\":859:918   */\n              iszero\n              tag_67\n              jumpi\n                /* \"#utility.yul\":914:915   */\n              0x00\n                /* \"#utility.yul\":911:912   */\n              0x00\n                /* \"#utility.yul\":904:916   */\n              revert\n                /* \"#utility.yul\":859:918   */\n            tag_67:\n                /* \"#utility.yul\":978:984   */\n              dup2\n                /* \"#utility.yul\":971:975   */\n              0x20\n                /* \"#utility.yul\":963:969   */\n              dup6\n                /* \"#utility.yul\":959:976   */\n              add\n                /* \"#utility.yul\":952:956   */\n              0x20\n                /* \"#utility.yul\":944:950   */\n              dup4\n                /* \"#utility.yul\":940:957   */\n              add\n                /* \"#utility.yul\":927:985   */\n              calldatacopy\n                /* \"#utility.yul\":1033:1034   */\n              0x00\n                /* \"#utility.yul\":1005:1024   */\n              swap2\n              dup2\n              add\n                /* \"#utility.yul\":1026:1030   */\n              0x20\n                /* \"#utility.yul\":1001:1031   */\n              add\n                /* \"#utility.yul\":994:1035   */\n              swap2\n              swap1\n              swap2\n              mstore\n                /* \"#utility.yul\":1009:1015   */\n              swap4\n                /* \"#utility.yul\":339:1065   */\n              swap3\n              pop\n              pop\n              pop\n              jump\t// out\n                /* \"#utility.yul\":1070:1466   */\n            tag_11:\n                /* \"#utility.yul\":1148:1154   */\n              0x00\n                /* \"#utility.yul\":1156:1162   */\n              0x00\n                /* \"#utility.yul\":1209:1211   */\n              0x40\n                /* \"#utility.yul\":1197:1206   */\n              dup4\n                /* \"#utility.yul\":1188:1195   */\n              dup6\n                /* \"#utility.yul\":1184:1207   */\n              sub\n                /* \"#utility.yul\":1180:1212   */\n              slt\n                /* \"#utility.yul\":1177:1229   */\n              iszero\n              tag_69\n              jumpi\n                /* \"#utility.yul\":1225:1226   */\n              0x00\n                /* \"#utility.yul\":1222:1223   */\n              0x00\n                /* \"#utility.yul\":1215:1227   */\n              revert\n                /* \"#utility.yul\":1177:1229   */\n            tag_69:\n                /* \"#utility.yul\":1248:1277   */\n              tag_70\n                /* \"#utility.yul\":1267:1276   */\n              dup4\n                /* \"#utility.yul\":1248:1277   */\n              tag_51\n              jump\t// in\n            tag_70:\n                /* \"#utility.yul\":1238:1277   */\n              swap2\n              pop\n                /* \"#utility.yul\":1328:1330   */\n              0x20\n                /* \"#utility.yul\":1317:1326   */\n              dup4\n                /* \"#utility.yul\":1313:1331   */\n              add\n                /* \"#utility.yul\":1300:1332   */\n              calldataload\n                /* \"#utility.yul\":1355:1373   */\n              0xffffffffffffffff\n                /* \"#utility.yul\":1347:1353   */\n              dup2\n                /* \"#utility.yul\":1344:1374   */\n              gt\n                /* \"#utility.yul\":1341:1391   */\n              iszero\n              tag_71\n              jumpi\n                /* \"#utility.yul\":1387:1388   */\n              0x00\n                /* \"#utility.yul\":1384:1385   */\n              0x00\n                /* \"#utility.yul\":1377:1389   */\n              revert\n                /* \"#utility.yul\":1341:1391   */\n            tag_71:\n                /* \"#utility.yul\":1410:1460   */\n              tag_72\n                /* \"#utility.yul\":1452:1459   */\n              dup6\n                /* \"#utility.yul\":1443:1449   */\n              dup3\n                /* \"#utility.yul\":1432:1441   */\n              dup7\n                /* \"#utility.yul\":1428:1450   */\n              add\n                /* \"#utility.yul\":1410:1460   */\n              tag_53\n              jump\t// in\n            tag_72:\n                /* \"#utility.yul\":1400:1460   */\n              swap2\n              pop\n              pop\n                /* \"#utility.yul\":1070:1466   */\n              swap3\n              pop\n              swap3\n              swap1\n              pop\n              jump\t// out\n                /* \"#utility.yul\":1694:2016   */\n            tag_19:\n                /* \"#utility.yul\":1763:1769   */\n              0x00\n                /* \"#utility.yul\":1816:1818   */\n              0x20\n                /* \"#utility.yul\":1804:1813   */\n              dup3\n                /* \"#utility.yul\":1795:1802   */\n              dup5\n                /* \"#utility.yul\":1791:1814   */\n              sub\n                /* \"#utility.yul\":1787:1819   */\n              slt\n                /* \"#utility.yul\":1784:1836   */\n              iszero\n              tag_75\n              jumpi\n                /* \"#utility.yul\":1832:1833   */\n              0x00\n                /* \"#utility.yul\":1829:1830   */\n              0x00\n                /* \"#utility.yul\":1822:1834   */\n              revert\n                /* \"#utility.yul\":1784:1836   */\n            tag_75:\n                /* \"#utility.yul\":1872:1881   */\n              dup2\n                /* \"#utility.yul\":1859:1882   */\n              calldataload\n                /* \"#utility.yul\":1905:1923   */\n              0xffffffffffffffff\n                /* \"#utility.yul\":1897:1903   */\n              dup2\n                /* \"#utility.yul\":1894:1924   */\n              gt\n                /* \"#utility.yul\":1891:1941   */\n              iszero\n              tag_76\n              jumpi\n                /* \"#utility.yul\":1937:1938   */\n              0x00\n                /* \"#utility.yul\":1934:1935   */\n              0x00\n                /* \"#utility.yul\":1927:1939   */\n              revert\n                /* \"#utility.yul\":1891:1941   */\n            tag_76:\n                /* \"#utility.yul\":1960:2010   */\n              tag_77\n                /* \"#utility.yul\":2002:2009   */\n              dup5\n                /* \"#utility.yul\":1993:1999   */\n              dup3\n                /* \"#utility.yul\":1982:1991   */\n              dup6\n                /* \"#utility.yul\":1978:2000   */\n              add\n                /* \"#utility.yul\":1960:2010   */\n              tag_53\n              jump\t// in\n            tag_77:\n                /* \"#utility.yul\":1950:2010   */\n              swap5\n                /* \"#utility.yul\":1694:2016   */\n              swap4\n              pop\n              pop\n              pop\n              pop\n              jump\t// out\n                /* \"#utility.yul\":2021:2201   */\n            tag_24:\n                /* \"#utility.yul\":2080:2086   */\n              0x00\n                /* \"#utility.yul\":2133:2135   */\n              0x20\n                /* \"#utility.yul\":2121:2130   */\n              dup3\n                /* \"#utility.yul\":2112:2119   */\n              dup5\n                /* \"#utility.yul\":2108:2131   */\n              sub\n                /* \"#utility.yul\":2104:2136   */\n              slt\n                /* \"#utility.yul\":2101:2153   */\n              iszero\n              tag_79\n              jumpi\n                /* \"#utility.yul\":2149:2150   */\n              0x00\n                /* \"#utility.yul\":2146:2147   */\n              0x00\n                /* \"#utility.yul\":2139:2151   */\n              revert\n                /* \"#utility.yul\":2101:2153   */\n            tag_79:\n              pop\n                /* \"#utility.yul\":2172:2195   */\n              calldataload\n              swap2\n                /* \"#utility.yul\":2021:2201   */\n              swap1\n              pop\n              jump\t// out\n                /* \"#utility.yul\":2206:2695   */\n            tag_27:\n                /* \"#utility.yul\":2383:2389   */\n              dup3\n                /* \"#utility.yul\":2372:2381   */\n              dup2\n                /* \"#utility.yul\":2365:2390   */\n              mstore\n                /* \"#utility.yul\":2426:2428   */\n              0x40\n                /* \"#utility.yul\":2421:2423   */\n              0x20\n                /* \"#utility.yul\":2410:2419   */\n              dup3\n                /* \"#utility.yul\":2406:2424   */\n              add\n                /* \"#utility.yul\":2399:2429   */\n              mstore\n                /* \"#utility.yul\":2346:2350   */\n              0x00\n                /* \"#utility.yul\":2458:2464   */\n              dup3\n                /* \"#utility.yul\":2452:2465   */\n              mload\n                /* \"#utility.yul\":2501:2507   */\n              dup1\n                /* \"#utility.yul\":2496:2498   */\n              0x40\n                /* \"#utility.yul\":2485:2494   */\n              dup5\n                /* \"#utility.yul\":2481:2499   */\n              add\n                /* \"#utility.yul\":2474:2508   */\n              mstore\n                /* \"#utility.yul\":2560:2566   */\n              dup1\n                /* \"#utility.yul\":2555:2557   */\n              0x20\n                /* \"#utility.yul\":2547:2553   */\n              dup6\n                /* \"#utility.yul\":2543:2558   */\n              add\n                /* \"#utility.yul\":2538:2540   */\n              0x60\n                /* \"#utility.yul\":2527:2536   */\n              dup6\n                /* \"#utility.yul\":2523:2541   */\n              add\n                /* \"#utility.yul\":2517:2567   */\n              mcopy\n                /* \"#utility.yul\":2616:2617   */\n              0x00\n                /* \"#utility.yul\":2611:2613   */\n              0x60\n                /* \"#utility.yul\":2602:2608   */\n              dup3\n                /* \"#utility.yul\":2591:2600   */\n              dup6\n                /* \"#utility.yul\":2587:2609   */\n              add\n                /* \"#utility.yul\":2583:2614   */\n              add\n                /* \"#utility.yul\":2576:2618   */\n              mstore\n                /* \"#utility.yul\":2686:2688   */\n              0x60\n                /* \"#utility.yul\":2679:2681   */\n              0x1f\n                /* \"#utility.yul\":2675:2682   */\n              not\n                /* \"#utility.yul\":2670:2672   */\n              0x1f\n                /* \"#utility.yul\":2662:2668   */\n              dup4\n                /* \"#utility.yul\":2658:2673   */\n              add\n                /* \"#utility.yul\":2654:2683   */\n              and\n                /* \"#utility.yul\":2643:2652   */\n              dup5\n                /* \"#utility.yul\":2639:2684   */\n              add\n                /* \"#utility.yul\":2635:2689   */\n              add\n                /* \"#utility.yul\":2627:2689   */\n              swap2\n              pop\n              pop\n                /* \"#utility.yul\":2206:2695   */\n              swap4\n              swap3\n              pop\n              pop\n              pop\n              jump\t// out\n                /* \"#utility.yul\":2700:2886   */\n            tag_30:\n                /* \"#utility.yul\":2759:2765   */\n              0x00\n                /* \"#utility.yul\":2812:2814   */\n              0x20\n                /* \"#utility.yul\":2800:2809   */\n              dup3\n                /* \"#utility.yul\":2791:2798   */\n              dup5\n                /* \"#utility.yul\":2787:2810   */\n              sub\n                /* \"#utility.yul\":2783:2815   */\n              slt\n                /* \"#utility.yul\":2780:2832   */\n              iszero\n              tag_82\n              jumpi\n                /* \"#utility.yul\":2828:2829   */\n              0x00\n                /* \"#utility.yul\":2825:2826   */\n              0x00\n                /* \"#utility.yul\":2818:2830   */\n              revert\n                /* \"#utility.yul\":2780:2832   */\n            tag_82:\n                /* \"#utility.yul\":2851:2880   */\n              tag_83\n                /* \"#utility.yul\":2870:2879   */\n              dup3\n                /* \"#utility.yul\":2851:2880   */\n              tag_51\n              jump\t// in\n            tag_83:\n                /* \"#utility.yul\":2841:2880   */\n              swap4\n                /* \"#utility.yul\":2700:2886   */\n              swap3\n              pop\n              pop\n              pop\n              jump\t// out\n                /* \"#utility.yul\":2891:3271   */\n            tag_44:\n                /* \"#utility.yul\":2970:2971   */\n              0x01\n                /* \"#utility.yul\":2966:2978   */\n              dup2\n              dup2\n              shr\n              swap1\n                /* \"#utility.yul\":3013:3025   */\n              dup3\n              and\n              dup1\n                /* \"#utility.yul\":3034:3095   */\n              tag_85\n              jumpi\n                /* \"#utility.yul\":3088:3092   */\n              0x7f\n                /* \"#utility.yul\":3080:3086   */\n              dup3\n                /* \"#utility.yul\":3076:3093   */\n              and\n                /* \"#utility.yul\":3066:3093   */\n              swap2\n              pop\n                /* \"#utility.yul\":3034:3095   */\n            tag_85:\n                /* \"#utility.yul\":3141:3143   */\n              0x20\n                /* \"#utility.yul\":3133:3139   */\n              dup3\n                /* \"#utility.yul\":3130:3144   */\n              lt\n                /* \"#utility.yul\":3110:3128   */\n              dup2\n                /* \"#utility.yul\":3107:3145   */\n              sub\n                /* \"#utility.yul\":3104:3265   */\n              tag_86\n              jumpi\n                /* \"#utility.yul\":3187:3197   */\n              0x4e487b71\n                /* \"#utility.yul\":3182:3185   */\n              0xe0\n                /* \"#utility.yul\":3178:3198   */\n              shl\n                /* \"#utility.yul\":3175:3176   */\n              0x00\n                /* \"#utility.yul\":3168:3199   */\n              mstore\n                /* \"#utility.yul\":3222:3226   */\n              0x22\n                /* \"#utility.yul\":3219:3220   */\n              0x04\n                /* \"#utility.yul\":3212:3227   */\n              mstore\n                /* \"#utility.yul\":3250:3254   */\n              0x24\n                /* \"#utility.yul\":3247:3248   */\n              0x00\n                /* \"#utility.yul\":3240:3255   */\n              revert\n                /* \"#utility.yul\":3104:3265   */\n            tag_86:\n              pop\n                /* \"#utility.yul\":2891:3271   */\n              swap2\n              swap1\n              pop\n              jump\t// out\n                /* \"#utility.yul\":3402:3920   */\n            tag_55:\n                /* \"#utility.yul\":3504:3506   */\n              0x1f\n                /* \"#utility.yul\":3499:3502   */\n              dup3\n                /* \"#utility.yul\":3496:3507   */\n              gt\n                /* \"#utility.yul\":3493:3914   */\n              iszero\n              tag_89\n              jumpi\n                /* \"#utility.yul\":3540:3545   */\n              dup1\n                /* \"#utility.yul\":3537:3538   */\n              0x00\n                /* \"#utility.yul\":3530:3546   */\n              mstore\n                /* \"#utility.yul\":3584:3588   */\n              0x20\n                /* \"#utility.yul\":3581:3582   */\n              0x00\n                /* \"#utility.yul\":3571:3589   */\n              keccak256\n                /* \"#utility.yul\":3654:3656   */\n              0x1f\n                /* \"#utility.yul\":3642:3652   */\n              dup5\n                /* \"#utility.yul\":3638:3657   */\n              add\n                /* \"#utility.yul\":3635:3636   */\n              0x05\n                /* \"#utility.yul\":3631:3658   */\n              shr\n                /* \"#utility.yul\":3625:3629   */\n              dup2\n                /* \"#utility.yul\":3621:3659   */\n              add\n                /* \"#utility.yul\":3690:3694   */\n              0x20\n                /* \"#utility.yul\":3678:3688   */\n              dup6\n                /* \"#utility.yul\":3675:3695   */\n              lt\n                /* \"#utility.yul\":3672:3719   */\n              iszero\n              tag_90\n              jumpi\n              pop\n                /* \"#utility.yul\":3713:3717   */\n              dup1\n                /* \"#utility.yul\":3672:3719   */\n            tag_90:\n                /* \"#utility.yul\":3768:3770   */\n              0x1f\n                /* \"#utility.yul\":3763:3766   */\n              dup5\n                /* \"#utility.yul\":3759:3771   */\n              add\n                /* \"#utility.yul\":3756:3757   */\n              0x05\n                /* \"#utility.yul\":3752:3772   */\n              shr\n                /* \"#utility.yul\":3746:3750   */\n              dup3\n                /* \"#utility.yul\":3742:3773   */\n              add\n                /* \"#utility.yul\":3732:3773   */\n              swap2\n              pop\n                /* \"#utility.yul\":3823:3904   */\n            tag_91:\n                /* \"#utility.yul\":3841:3843   */\n              dup2\n                /* \"#utility.yul\":3834:3839   */\n              dup2\n                /* \"#utility.yul\":3831:3844   */\n              lt\n                /* \"#utility.yul\":3823:3904   */\n              iszero\n              tag_93\n              jumpi\n                /* \"#utility.yul\":3900:3901   */\n              0x00\n                /* \"#utility.yul\":3886:3902   */\n              dup2\n              sstore\n                /* \"#utility.yul\":3867:3868   */\n              0x01\n                /* \"#utility.yul\":3856:3869   */\n              add\n                /* \"#utility.yul\":3823:3904   */\n              jump(tag_91)\n            tag_93:\n                /* \"#utility.yul\":3827:3830   */\n              pop\n              pop\n                /* \"#utility.yul\":3493:3914   */\n            tag_89:\n                /* \"#utility.yul\":3402:3920   */\n              pop\n              pop\n              pop\n              jump\t// out\n                /* \"#utility.yul\":4096:5395   */\n            tag_38:\n                /* \"#utility.yul\":4222:4225   */\n              dup2\n                /* \"#utility.yul\":4216:4226   */\n              mload\n                /* \"#utility.yul\":4249:4267   */\n              0xffffffffffffffff\n                /* \"#utility.yul\":4241:4247   */\n              dup2\n                /* \"#utility.yul\":4238:4268   */\n              gt\n                /* \"#utility.yul\":4235:4291   */\n              iszero\n              tag_97\n              jumpi\n                /* \"#utility.yul\":4271:4289   */\n              tag_97\n              tag_52\n              jump\t// in\n            tag_97:\n                /* \"#utility.yul\":4300:4397   */\n              tag_98\n                /* \"#utility.yul\":4390:4396   */\n              dup2\n                /* \"#utility.yul\":4350:4388   */\n              tag_99\n                /* \"#utility.yul\":4382:4386   */\n              dup5\n                /* \"#utility.yul\":4376:4387   */\n              sload\n                /* \"#utility.yul\":4350:4388   */\n              tag_44\n              jump\t// in\n            tag_99:\n                /* \"#utility.yul\":4344:4348   */\n              dup5\n                /* \"#utility.yul\":4300:4397   */\n              tag_55\n              jump\t// in\n            tag_98:\n                /* \"#utility.yul\":4446:4450   */\n              0x20\n                /* \"#utility.yul\":4477:4479   */\n              0x1f\n                /* \"#utility.yul\":4466:4480   */\n              dup3\n              gt\n                /* \"#utility.yul\":4494:4495   */\n              0x01\n                /* \"#utility.yul\":4489:5138   */\n              dup2\n              eq\n              tag_101\n              jumpi\n                /* \"#utility.yul\":5182:5183   */\n              0x00\n                /* \"#utility.yul\":5199:5205   */\n              dup4\n                /* \"#utility.yul\":5196:5285   */\n              iszero\n              tag_102\n              jumpi\n              pop\n                /* \"#utility.yul\":5251:5270   */\n              dup5\n              dup3\n              add\n                /* \"#utility.yul\":5245:5271   */\n              mload\n                /* \"#utility.yul\":5196:5285   */\n            tag_102:\n              not(0x00)\n                /* \"#utility.yul\":4053:4054   */\n              0x03\n                /* \"#utility.yul\":4049:4060   */\n              dup6\n              swap1\n              shl\n                /* \"#utility.yul\":4045:4069   */\n              shr\n                /* \"#utility.yul\":4041:4070   */\n              not\n                /* \"#utility.yul\":4031:4071   */\n              and\n                /* \"#utility.yul\":4077:4078   */\n              0x01\n                /* \"#utility.yul\":4073:4084   */\n              dup5\n              swap1\n              shl\n                /* \"#utility.yul\":4028:4085   */\n              or\n                /* \"#utility.yul\":5298:5379   */\n              dup5\n              sstore\n                /* \"#utility.yul\":4459:5389   */\n              jump(tag_93)\n                /* \"#utility.yul\":4489:5138   */\n            tag_101:\n                /* \"#utility.yul\":3349:3350   */\n              0x00\n                /* \"#utility.yul\":3342:3356   */\n              dup5\n              dup2\n              mstore\n                /* \"#utility.yul\":3386:3390   */\n              0x20\n                /* \"#utility.yul\":3373:3391   */\n              dup2\n              keccak256\n              not(0x1f)\n                /* \"#utility.yul\":4525:4545   */\n              dup6\n              and\n              swap2\n                /* \"#utility.yul\":4643:4865   */\n            tag_105:\n                /* \"#utility.yul\":4657:4664   */\n              dup3\n                /* \"#utility.yul\":4654:4655   */\n              dup2\n                /* \"#utility.yul\":4651:4665   */\n              lt\n                /* \"#utility.yul\":4643:4865   */\n              iszero\n              tag_107\n              jumpi\n                /* \"#utility.yul\":4739:4758   */\n              dup8\n              dup6\n              add\n                /* \"#utility.yul\":4733:4759   */\n              mload\n                /* \"#utility.yul\":4718:4760   */\n              dup3\n              sstore\n                /* \"#utility.yul\":4846:4850   */\n              0x20\n                /* \"#utility.yul\":4831:4851   */\n              swap5\n              dup6\n              add\n              swap5\n                /* \"#utility.yul\":4799:4800   */\n              0x01\n                /* \"#utility.yul\":4787:4801   */\n              swap1\n              swap3\n              add\n              swap2\n                /* \"#utility.yul\":4673:4685   */\n              add\n                /* \"#utility.yul\":4643:4865   */\n              jump(tag_105)\n            tag_107:\n                /* \"#utility.yul\":4647:4650   */\n              pop\n                /* \"#utility.yul\":4893:4899   */\n              dup5\n                /* \"#utility.yul\":4884:4891   */\n              dup3\n                /* \"#utility.yul\":4881:4900   */\n              lt\n                /* \"#utility.yul\":4878:5079   */\n              iszero\n              tag_108\n              jumpi\n                /* \"#utility.yul\":4954:4973   */\n              dup7\n              dup5\n              add\n                /* \"#utility.yul\":4948:4974   */\n              mload\n              not(0x00)\n                /* \"#utility.yul\":5037:5038   */\n              0x03\n                /* \"#utility.yul\":5033:5047   */\n              dup8\n              swap1\n              shl\n                /* \"#utility.yul\":5049:5052   */\n              0xf8\n                /* \"#utility.yul\":5029:5053   */\n              and\n                /* \"#utility.yul\":5025:5062   */\n              shr\n                /* \"#utility.yul\":5021:5063   */\n              not\n                /* \"#utility.yul\":5006:5064   */\n              and\n                /* \"#utility.yul\":4991:5065   */\n              dup2\n              sstore\n                /* \"#utility.yul\":4878:5079   */\n            tag_108:\n              pop\n              pop\n              pop\n              pop\n                /* \"#utility.yul\":5125:5126   */\n              0x01\n                /* \"#utility.yul\":5109:5123   */\n              swap1\n              dup2\n              shl\n                /* \"#utility.yul\":5105:5127   */\n              add\n                /* \"#utility.yul\":5092:5128   */\n              swap1\n              sstore\n              pop\n                /* \"#utility.yul\":4096:5395   */\n              jump\t// out\n                /* \"#utility.yul\":5400:5703   */\n            tag_40:\n                /* \"#utility.yul\":5531:5534   */\n              0x00\n                /* \"#utility.yul\":5569:5575   */\n              dup3\n                /* \"#utility.yul\":5563:5576   */\n              mload\n                /* \"#utility.yul\":5615:5621   */\n              dup1\n                /* \"#utility.yul\":5608:5612   */\n              0x20\n                /* \"#utility.yul\":5600:5606   */\n              dup6\n                /* \"#utility.yul\":5596:5613   */\n              add\n                /* \"#utility.yul\":5591:5594   */\n              dup5\n                /* \"#utility.yul\":5585:5622   */\n              mcopy\n                /* \"#utility.yul\":5677:5678   */\n              0x00\n                /* \"#utility.yul\":5641:5657   */\n              swap3\n              add\n                /* \"#utility.yul\":5666:5679   */\n              swap2\n              dup3\n              mstore\n              pop\n                /* \"#utility.yul\":5641:5657   */\n              swap2\n                /* \"#utility.yul\":5400:5703   */\n              swap1\n              pop\n              jump\t// out\n\n            auxdata: 0xa2646970667358221220fa1f1bd64579ca66f1cd155d5e8b0e163010b07d0730d1324b392d7f3ba887b864736f6c634300081e0033\n        }\n    }\n\n    auxdata: 0xa26469706673582212201b2d610575a224cd2196f13e0b352a909e75911a68ff213bdb8b924f27afaf8464736f6c634300081e0033\n}\n",
				"bytecode": {
					"linkReferences": {},
					"object": "6080604052348015600e575f5ffd5b5061098e8061001c5f395ff3fe608060405234801561000f575f5ffd5b506004361061004a575f3560e01c80632dc721841461004e5780639be8e17e1461007e5780639fa05b28146100a9578063e2476bad146100b3575b5f5ffd5b61006161005c366004610289565b6100c6565b6040516001600160a01b0390911681526020015b60405180910390f35b61009161008c3660046102b7565b6100ed565b6040516001600160801b039091168152602001610075565b6100b161017e565b005b6100b16100c13660046102d9565b6101f4565b5f81815481106100d4575f80fd5b5f918252602090912001546001600160a01b0316905081565b5f5f826001600160801b03168154811061010957610109610310565b5f91825260209182902001546040805163e41e141b60e01b815290516001600160a01b039092169263e41e141b926004808401938290030181865afa158015610154573d5f5f3e3d5ffd5b505050506040513d601f19601f820116820180604052508101906101789190610324565b92915050565b5f60405161018b9061027c565b604051809103905ff0801580156101a4573d5f5f3e3d5ffd5b505f80546001810182559080527f290decd9548b62a8d60345a988386fc84ba6bc95484008f6362f93160ef3e5630180546001600160a01b0319166001600160a01b039290921691909117905550565b5f826001600160801b03168154811061020f5761020f610310565b5f91825260209091200154604051636e37f8bd60e11b81526001600160801b03831660048201526001600160a01b039091169063dc6ff17a906024015f604051808303815f87803b158015610262575f5ffd5b505af1158015610274573d5f5f3e3d5ffd5b505050505050565b6106198061034083390190565b5f60208284031215610299575f5ffd5b5035919050565b6001600160801b03811681146102b4575f5ffd5b50565b5f602082840312156102c7575f5ffd5b81356102d2816102a0565b9392505050565b5f5f604083850312156102ea575f5ffd5b82356102f5816102a0565b91506020830135610305816102a0565b809150509250929050565b634e487b7160e01b5f52603260045260245ffd5b5f60208284031215610334575f5ffd5b81516102d2816102a056fe6080604052348015600e575f5ffd5b506105fd8061001c5f395ff3fe608060405234801561000f575f5ffd5b5060043610610060575f3560e01c80633b53afb814610064578063790418cc146100795780638bab8dd5146100a8578063bf119bdb146100dc578063dc6ff17a146100fd578063e41e141b1461012c575b5f5ffd5b61007761007236600461037a565b61013c565b005b5f5461008b906001600160801b031681565b6040516001600160801b0390911681526020015b60405180910390f35b61008b6100b63660046103c5565b80516020818301810180516002825292820191909301209152546001600160801b031681565b6100ef6100ea3660046103ff565b61020c565b60405161009f929190610416565b61007761010b366004610452565b5f80546001600160801b0319166001600160801b0392909216919091179055565b5f546001600160801b031661008b565b604080518082019091526001600160801b0383168152602081018281526001805480820182555f91909152825160029091027fb10e2d527612073b26eecdfd717e6a320cf44b4afac2b0732d9fcbe2b7fa0cf68101918255915190917fb10e2d527612073b26eecdfd717e6a320cf44b4afac2b0732d9fcbe2b7fa0cf701906101c590826104f6565b505050816002826040516101d991906105b1565b90815260405190819003602001902080546001600160801b03929092166001600160801b03199092169190911790555050565b6001818154811061021b575f80fd5b5f918252602090912060029091020180546001820180549193509061023f90610472565b80601f016020809104026020016040519081016040528092919081815260200182805461026b90610472565b80156102b65780601f1061028d576101008083540402835291602001916102b6565b820191905f5260205f20905b81548152906001019060200180831161029957829003601f168201915b5050505050905082565b80356001600160801b03811681146102d6575f5ffd5b919050565b634e487b7160e01b5f52604160045260245ffd5b5f82601f8301126102fe575f5ffd5b813567ffffffffffffffff811115610318576103186102db565b604051601f8201601f19908116603f0116810167ffffffffffffffff81118282101715610347576103476102db565b60405281815283820160200185101561035e575f5ffd5b816020850160208301375f918101602001919091529392505050565b5f5f6040838503121561038b575f5ffd5b610394836102c0565b9150602083013567ffffffffffffffff8111156103af575f5ffd5b6103bb858286016102ef565b9150509250929050565b5f602082840312156103d5575f5ffd5b813567ffffffffffffffff8111156103eb575f5ffd5b6103f7848285016102ef565b949350505050565b5f6020828403121561040f575f5ffd5b5035919050565b828152604060208201525f82518060408401528060208501606085015e5f606082850101526060601f19601f8301168401019150509392505050565b5f60208284031215610462575f5ffd5b61046b826102c0565b9392505050565b600181811c9082168061048657607f821691505b6020821081036104a457634e487b7160e01b5f52602260045260245ffd5b50919050565b601f8211156104f157805f5260205f20601f840160051c810160208510156104cf5750805b601f840160051c820191505b818110156104ee575f81556001016104db565b50505b505050565b815167ffffffffffffffff811115610510576105106102db565b6105248161051e8454610472565b846104aa565b6020601f821160018114610556575f831561053f5750848201515b5f19600385901b1c1916600184901b1784556104ee565b5f84815260208120601f198516915b828110156105855787850151825560209485019460019092019101610565565b50848210156105a257868401515f19600387901b60f8161c191681555b50505050600190811b01905550565b5f82518060208501845e5f92019182525091905056fea2646970667358221220fa1f1bd64579ca66f1cd155d5e8b0e163010b07d0730d1324b392d7f3ba887b864736f6c634300081e0033a26469706673582212201b2d610575a224cd2196f13e0b352a909e75911a68ff213bdb8b924f27afaf8464736f6c634300081e0033",
					"opcodes": "PUSH1 0x80 PUSH1 0x40 MSTORE CALLVALUE DUP1 ISZERO PUSH1 0xE JUMPI PUSH0 PUSH0 REVERT JUMPDEST POP PUSH2 0x98E DUP1 PUSH2 0x1C PUSH0 CODECOPY PUSH0 RETURN INVALID PUSH1 0x80 PUSH1 0x40 MSTORE CALLVALUE DUP1 ISZERO PUSH2 0xF JUMPI PUSH0 PUSH0 REVERT JUMPDEST POP PUSH1 0x4 CALLDATASIZE LT PUSH2 0x4A JUMPI PUSH0 CALLDATALOAD PUSH1 0xE0 SHR DUP1 PUSH4 0x2DC72184 EQ PUSH2 0x4E JUMPI DUP1 PUSH4 0x9BE8E17E EQ PUSH2 0x7E JUMPI DUP1 PUSH4 0x9FA05B28 EQ PUSH2 0xA9 JUMPI DUP1 PUSH4 0xE2476BAD EQ PUSH2 0xB3 JUMPI JUMPDEST PUSH0 PUSH0 REVERT JUMPDEST PUSH2 0x61 PUSH2 0x5C CALLDATASIZE PUSH1 0x4 PUSH2 0x289 JUMP JUMPDEST PUSH2 0xC6 JUMP JUMPDEST PUSH1 0x40 MLOAD PUSH1 0x1 PUSH1 0x1 PUSH1 0xA0 SHL SUB SWAP1 SWAP2 AND DUP2 MSTORE PUSH1 0x20 ADD JUMPDEST PUSH1 0x40 MLOAD DUP1 SWAP2 SUB SWAP1 RETURN JUMPDEST PUSH2 0x91 PUSH2 0x8C CALLDATASIZE PUSH1 0x4 PUSH2 0x2B7 JUMP JUMPDEST PUSH2 0xED JUMP JUMPDEST PUSH1 0x40 MLOAD PUSH1 0x1 PUSH1 0x1 PUSH1 0x80 SHL SUB SWAP1 SWAP2 AND DUP2 MSTORE PUSH1 0x20 ADD PUSH2 0x75 JUMP JUMPDEST PUSH2 0xB1 PUSH2 0x17E JUMP JUMPDEST STOP JUMPDEST PUSH2 0xB1 PUSH2 0xC1 CALLDATASIZE PUSH1 0x4 PUSH2 0x2D9 JUMP JUMPDEST PUSH2 0x1F4 JUMP JUMPDEST PUSH0 DUP2 DUP2 SLOAD DUP2 LT PUSH2 0xD4 JUMPI PUSH0 DUP1 REVERT JUMPDEST PUSH0 SWAP2 DUP3 MSTORE PUSH1 0x20 SWAP1 SWAP2 KECCAK256 ADD SLOAD PUSH1 0x1 PUSH1 0x1 PUSH1 0xA0 SHL SUB AND SWAP1 POP DUP2 JUMP JUMPDEST PUSH0 PUSH0 DUP3 PUSH1 0x1 PUSH1 0x1 PUSH1 0x80 SHL SUB AND DUP2 SLOAD DUP2 LT PUSH2 0x109 JUMPI PUSH2 0x109 PUSH2 0x310 JUMP JUMPDEST PUSH0 SWAP2 DUP3 MSTORE PUSH1 0x20 SWAP2 DUP3 SWAP1 KECCAK256 ADD SLOAD PUSH1 0x40 DUP1 MLOAD PUSH4 0xE41E141B PUSH1 0xE0 SHL DUP2 MSTORE SWAP1 MLOAD PUSH1 0x1 PUSH1 0x1 PUSH1 0xA0 SHL SUB SWAP1 SWAP3 AND SWAP3 PUSH4 0xE41E141B SWAP3 PUSH1 0x4 DUP1 DUP5 ADD SWAP4 DUP3 SWAP1 SUB ADD DUP2 DUP7 GAS STATICCALL ISZERO DUP1 ISZERO PUSH2 0x154 JUMPI RETURNDATASIZE PUSH0 PUSH0 RETURNDATACOPY RETURNDATASIZE PUSH0 REVERT JUMPDEST POP POP POP POP PUSH1 0x40 MLOAD RETURNDATASIZE PUSH1 0x1F NOT PUSH1 0x1F DUP3 ADD AND DUP3 ADD DUP1 PUSH1 0x40 MSTORE POP DUP2 ADD SWAP1 PUSH2 0x178 SWAP2 SWAP1 PUSH2 0x324 JUMP JUMPDEST SWAP3 SWAP2 POP POP JUMP JUMPDEST PUSH0 PUSH1 0x40 MLOAD PUSH2 0x18B SWAP1 PUSH2 0x27C JUMP JUMPDEST PUSH1 0x40 MLOAD DUP1 SWAP2 SUB SWAP1 PUSH0 CREATE DUP1 ISZERO DUP1 ISZERO PUSH2 0x1A4 JUMPI RETURNDATASIZE PUSH0 PUSH0 RETURNDATACOPY RETURNDATASIZE PUSH0 REVERT JUMPDEST POP PUSH0 DUP1 SLOAD PUSH1 0x1 DUP2 ADD DUP3 SSTORE SWAP1 DUP1 MSTORE PUSH32 0x290DECD9548B62A8D60345A988386FC84BA6BC95484008F6362F93160EF3E563 ADD DUP1 SLOAD PUSH1 0x1 PUSH1 0x1 PUSH1 0xA0 SHL SUB NOT AND PUSH1 0x1 PUSH1 0x1 PUSH1 0xA0 SHL SUB SWAP3 SWAP1 SWAP3 AND SWAP2 SWAP1 SWAP2 OR SWAP1 SSTORE POP JUMP JUMPDEST PUSH0 DUP3 PUSH1 0x1 PUSH1 0x1 PUSH1 0x80 SHL SUB AND DUP2 SLOAD DUP2 LT PUSH2 0x20F JUMPI PUSH2 0x20F PUSH2 0x310 JUMP JUMPDEST PUSH0 SWAP2 DUP3 MSTORE PUSH1 0x20 SWAP1 SWAP2 KECCAK256 ADD SLOAD PUSH1 0x40 MLOAD PUSH4 0x6E37F8BD PUSH1 0xE1 SHL DUP2 MSTORE PUSH1 0x1 PUSH1 0x1 PUSH1 0x80 SHL SUB DUP4 AND PUSH1 0x4 DUP3 ADD MSTORE PUSH1 0x1 PUSH1 0x1 PUSH1 0xA0 SHL SUB SWAP1 SWAP2 AND SWAP1 PUSH4 0xDC6FF17A SWAP1 PUSH1 0x24 ADD PUSH0 PUSH1 0x40 MLOAD DUP1 DUP4 SUB DUP2 PUSH0 DUP8 DUP1 EXTCODESIZE ISZERO DUP1 ISZERO PUSH2 0x262 JUMPI PUSH0 PUSH0 REVERT JUMPDEST POP GAS CALL ISZERO DUP1 ISZERO PUSH2 0x274 JUMPI RETURNDATASIZE PUSH0 PUSH0 RETURNDATACOPY RETURNDATASIZE PUSH0 REVERT JUMPDEST POP POP POP POP POP POP JUMP JUMPDEST PUSH2 0x619 DUP1 PUSH2 0x340 DUP4 CODECOPY ADD SWAP1 JUMP JUMPDEST PUSH0 PUSH1 0x20 DUP3 DUP5 SUB SLT ISZERO PUSH2 0x299 JUMPI PUSH0 PUSH0 REVERT JUMPDEST POP CALLDATALOAD SWAP2 SWAP1 POP JUMP JUMPDEST PUSH1 0x1 PUSH1 0x1 PUSH1 0x80 SHL SUB DUP2 AND DUP2 EQ PUSH2 0x2B4 JUMPI PUSH0 PUSH0 REVERT JUMPDEST POP JUMP JUMPDEST PUSH0 PUSH1 0x20 DUP3 DUP5 SUB SLT ISZERO PUSH2 0x2C7 JUMPI PUSH0 PUSH0 REVERT JUMPDEST DUP2 CALLDATALOAD PUSH2 0x2D2 DUP2 PUSH2 0x2A0 JUMP JUMPDEST SWAP4 SWAP3 POP POP POP JUMP JUMPDEST PUSH0 PUSH0 PUSH1 0x40 DUP4 DUP6 SUB SLT ISZERO PUSH2 0x2EA JUMPI PUSH0 PUSH0 REVERT JUMPDEST DUP3 CALLDATALOAD PUSH2 0x2F5 DUP2 PUSH2 0x2A0 JUMP JUMPDEST SWAP2 POP PUSH1 0x20 DUP4 ADD CALLDATALOAD PUSH2 0x305 DUP2 PUSH2 0x2A0 JUMP JUMPDEST DUP1 SWAP2 POP POP SWAP3 POP SWAP3 SWAP1 POP JUMP JUMPDEST PUSH4 0x4E487B71 PUSH1 0xE0 SHL PUSH0 MSTORE PUSH1 0x32 PUSH1 0x4 MSTORE PUSH1 0x24 PUSH0 REVERT JUMPDEST PUSH0 PUSH1 0x20 DUP3 DUP5 SUB SLT ISZERO PUSH2 0x334 JUMPI PUSH0 PUSH0 REVERT JUMPDEST DUP2 MLOAD PUSH2 0x2D2 DUP2 PUSH2 0x2A0 JUMP INVALID PUSH1 0x80 PUSH1 0x40 MSTORE CALLVALUE DUP1 ISZERO PUSH1 0xE JUMPI PUSH0 PUSH0 REVERT JUMPDEST POP PUSH2 0x5FD DUP1 PUSH2 0x1C PUSH0 CODECOPY PUSH0 RETURN INVALID PUSH1 0x80 PUSH1 0x40 MSTORE CALLVALUE DUP1 ISZERO PUSH2 0xF JUMPI PUSH0 PUSH0 REVERT JUMPDEST POP PUSH1 0x4 CALLDATASIZE LT PUSH2 0x60 JUMPI PUSH0 CALLDATALOAD PUSH1 0xE0 SHR DUP1 PUSH4 0x3B53AFB8 EQ PUSH2 0x64 JUMPI DUP1 PUSH4 0x790418CC EQ PUSH2 0x79 JUMPI DUP1 PUSH4 0x8BAB8DD5 EQ PUSH2 0xA8 JUMPI DUP1 PUSH4 0xBF119BDB EQ PUSH2 0xDC JUMPI DUP1 PUSH4 0xDC6FF17A EQ PUSH2 0xFD JUMPI DUP1 PUSH4 0xE41E141B EQ PUSH2 0x12C JUMPI JUMPDEST PUSH0 PUSH0 REVERT JUMPDEST PUSH2 0x77 PUSH2 0x72 CALLDATASIZE PUSH1 0x4 PUSH2 0x37A JUMP JUMPDEST PUSH2 0x13C JUMP JUMPDEST STOP JUMPDEST PUSH0 SLOAD PUSH2 0x8B SWAP1 PUSH1 0x1 PUSH1 0x1 PUSH1 0x80 SHL SUB AND DUP2 JUMP JUMPDEST PUSH1 0x40 MLOAD PUSH1 0x1 PUSH1 0x1 PUSH1 0x80 SHL SUB SWAP1 SWAP2 AND DUP2 MSTORE PUSH1 0x20 ADD JUMPDEST PUSH1 0x40 MLOAD DUP1 SWAP2 SUB SWAP1 RETURN JUMPDEST PUSH2 0x8B PUSH2 0xB6 CALLDATASIZE PUSH1 0x4 PUSH2 0x3C5 JUMP JUMPDEST DUP1 MLOAD PUSH1 0x20 DUP2 DUP4 ADD DUP2 ADD DUP1 MLOAD PUSH1 0x2 DUP3 MSTORE SWAP3 DUP3 ADD SWAP2 SWAP1 SWAP4 ADD KECCAK256 SWAP2 MSTORE SLOAD PUSH1 0x1 PUSH1 0x1 PUSH1 0x80 SHL SUB AND DUP2 JUMP JUMPDEST PUSH2 0xEF PUSH2 0xEA CALLDATASIZE PUSH1 0x4 PUSH2 0x3FF JUMP JUMPDEST PUSH2 0x20C JUMP JUMPDEST PUSH1 0x40 MLOAD PUSH2 0x9F SWAP3 SWAP2 SWAP1 PUSH2 0x416 JUMP JUMPDEST PUSH2 0x77 PUSH2 0x10B CALLDATASIZE PUSH1 0x4 PUSH2 0x452 JUMP JUMPDEST PUSH0 DUP1 SLOAD PUSH1 0x1 PUSH1 0x1 PUSH1 0x80 SHL SUB NOT AND PUSH1 0x1 PUSH1 0x1 PUSH1 0x80 SHL SUB SWAP3 SWAP1 SWAP3 AND SWAP2 SWAP1 SWAP2 OR SWAP1 SSTORE JUMP JUMPDEST PUSH0 SLOAD PUSH1 0x1 PUSH1 0x1 PUSH1 0x80 SHL SUB AND PUSH2 0x8B JUMP JUMPDEST PUSH1 0x40 DUP1 MLOAD DUP1 DUP3 ADD SWAP1 SWAP2 MSTORE PUSH1 0x1 PUSH1 0x1 PUSH1 0x80 SHL SUB DUP4 AND DUP2 MSTORE PUSH1 0x20 DUP2 ADD DUP3 DUP2 MSTORE PUSH1 0x1 DUP1 SLOAD DUP1 DUP3 ADD DUP3 SSTORE PUSH0 SWAP2 SWAP1 SWAP2 MSTORE DUP3 MLOAD PUSH1 0x2 SWAP1 SWAP2 MUL PUSH32 0xB10E2D527612073B26EECDFD717E6A320CF44B4AFAC2B0732D9FCBE2B7FA0CF6 DUP2 ADD SWAP2 DUP3 SSTORE SWAP2 MLOAD SWAP1 SWAP2 PUSH32 0xB10E2D527612073B26EECDFD717E6A320CF44B4AFAC2B0732D9FCBE2B7FA0CF7 ADD SWAP1 PUSH2 0x1C5 SWAP1 DUP3 PUSH2 0x4F6 JUMP JUMPDEST POP POP POP DUP2 PUSH1 0x2 DUP3 PUSH1 0x40 MLOAD PUSH2 0x1D9 SWAP2 SWAP1 PUSH2 0x5B1 JUMP JUMPDEST SWAP1 DUP2 MSTORE PUSH1 0x40 MLOAD SWAP1 DUP2 SWAP1 SUB PUSH1 0x20 ADD SWAP1 KECCAK256 DUP1 SLOAD PUSH1 0x1 PUSH1 0x1 PUSH1 0x80 SHL SUB SWAP3 SWAP1 SWAP3 AND PUSH1 0x1 PUSH1 0x1 PUSH1 0x80 SHL SUB NOT SWAP1 SWAP3 AND SWAP2 SWAP1 SWAP2 OR SWAP1 SSTORE POP POP JUMP JUMPDEST PUSH1 0x1 DUP2 DUP2 SLOAD DUP2 LT PUSH2 0x21B JUMPI PUSH0 DUP1 REVERT JUMPDEST PUSH0 SWAP2 DUP3 MSTORE PUSH1 0x20 SWAP1 SWAP2 KECCAK256 PUSH1 0x2 SWAP1 SWAP2 MUL ADD DUP1 SLOAD PUSH1 0x1 DUP3 ADD DUP1 SLOAD SWAP2 SWAP4 POP SWAP1 PUSH2 0x23F SWAP1 PUSH2 0x472 JUMP JUMPDEST DUP1 PUSH1 0x1F ADD PUSH1 0x20 DUP1 SWAP2 DIV MUL PUSH1 0x20 ADD PUSH1 0x40 MLOAD SWAP1 DUP2 ADD PUSH1 0x40 MSTORE DUP1 SWAP3 SWAP2 SWAP1 DUP2 DUP2 MSTORE PUSH1 0x20 ADD DUP3 DUP1 SLOAD PUSH2 0x26B SWAP1 PUSH2 0x472 JUMP JUMPDEST DUP1 ISZERO PUSH2 0x2B6 JUMPI DUP1 PUSH1 0x1F LT PUSH2 0x28D JUMPI PUSH2 0x100 DUP1 DUP4 SLOAD DIV MUL DUP4 MSTORE SWAP2 PUSH1 0x20 ADD SWAP2 PUSH2 0x2B6 JUMP JUMPDEST DUP3 ADD SWAP2 SWAP1 PUSH0 MSTORE PUSH1 0x20 PUSH0 KECCAK256 SWAP1 JUMPDEST DUP2 SLOAD DUP2 MSTORE SWAP1 PUSH1 0x1 ADD SWAP1 PUSH1 0x20 ADD DUP1 DUP4 GT PUSH2 0x299 JUMPI DUP3 SWAP1 SUB PUSH1 0x1F AND DUP3 ADD SWAP2 JUMPDEST POP POP POP POP POP SWAP1 POP DUP3 JUMP JUMPDEST DUP1 CALLDATALOAD PUSH1 0x1 PUSH1 0x1 PUSH1 0x80 SHL SUB DUP2 AND DUP2 EQ PUSH2 0x2D6 JUMPI PUSH0 PUSH0 REVERT JUMPDEST SWAP2 SWAP1 POP JUMP JUMPDEST PUSH4 0x4E487B71 PUSH1 0xE0 SHL PUSH0 MSTORE PUSH1 0x41 PUSH1 0x4 MSTORE PUSH1 0x24 PUSH0 REVERT JUMPDEST PUSH0 DUP3 PUSH1 0x1F DUP4 ADD SLT PUSH2 0x2FE JUMPI PUSH0 PUSH0 REVERT JUMPDEST DUP2 CALLDATALOAD PUSH8 0xFFFFFFFFFFFFFFFF DUP2 GT ISZERO PUSH2 0x318 JUMPI PUSH2 0x318 PUSH2 0x2DB JUMP JUMPDEST PUSH1 0x40 MLOAD PUSH1 0x1F DUP3 ADD PUSH1 0x1F NOT SWAP1 DUP2 AND PUSH1 0x3F ADD AND DUP2 ADD PUSH8 0xFFFFFFFFFFFFFFFF DUP2 GT DUP3 DUP3 LT OR ISZERO PUSH2 0x347 JUMPI PUSH2 0x347 PUSH2 0x2DB JUMP JUMPDEST PUSH1 0x40 MSTORE DUP2 DUP2 MSTORE DUP4 DUP3 ADD PUSH1 0x20 ADD DUP6 LT ISZERO PUSH2 0x35E JUMPI PUSH0 PUSH0 REVERT JUMPDEST DUP2 PUSH1 0x20 DUP6 ADD PUSH1 0x20 DUP4 ADD CALLDATACOPY PUSH0 SWAP2 DUP2 ADD PUSH1 0x20 ADD SWAP2 SWAP1 SWAP2 MSTORE SWAP4 SWAP3 POP POP POP JUMP JUMPDEST PUSH0 PUSH0 PUSH1 0x40 DUP4 DUP6 SUB SLT ISZERO PUSH2 0x38B JUMPI PUSH0 PUSH0 REVERT JUMPDEST PUSH2 0x394 DUP4 PUSH2 0x2C0 JUMP JUMPDEST SWAP2 POP PUSH1 0x20 DUP4 ADD CALLDATALOAD PUSH8 0xFFFFFFFFFFFFFFFF DUP2 GT ISZERO PUSH2 0x3AF JUMPI PUSH0 PUSH0 REVERT JUMPDEST PUSH2 0x3BB DUP6 DUP3 DUP7 ADD PUSH2 0x2EF JUMP JUMPDEST SWAP2 POP POP SWAP3 POP SWAP3 SWAP1 POP JUMP JUMPDEST PUSH0 PUSH1 0x20 DUP3 DUP5 SUB SLT ISZERO PUSH2 0x3D5 JUMPI PUSH0 PUSH0 REVERT JUMPDEST DUP2 CALLDATALOAD PUSH8 0xFFFFFFFFFFFFFFFF DUP2 GT ISZERO PUSH2 0x3EB JUMPI PUSH0 PUSH0 REVERT JUMPDEST PUSH2 0x3F7 DUP5 DUP3 DUP6 ADD PUSH2 0x2EF JUMP JUMPDEST SWAP5 SWAP4 POP POP POP POP JUMP JUMPDEST PUSH0 PUSH1 0x20 DUP3 DUP5 SUB SLT ISZERO PUSH2 0x40F JUMPI PUSH0 PUSH0 REVERT JUMPDEST POP CALLDATALOAD SWAP2 SWAP1 POP JUMP JUMPDEST DUP3 DUP2 MSTORE PUSH1 0x40 PUSH1 0x20 DUP3 ADD MSTORE PUSH0 DUP3 MLOAD DUP1 PUSH1 0x40 DUP5 ADD MSTORE DUP1 PUSH1 0x20 DUP6 ADD PUSH1 0x60 DUP6 ADD MCOPY PUSH0 PUSH1 0x60 DUP3 DUP6 ADD ADD MSTORE PUSH1 0x60 PUSH1 0x1F NOT PUSH1 0x1F DUP4 ADD AND DUP5 ADD ADD SWAP2 POP POP SWAP4 SWAP3 POP POP POP JUMP JUMPDEST PUSH0 PUSH1 0x20 DUP3 DUP5 SUB SLT ISZERO PUSH2 0x462 JUMPI PUSH0 PUSH0 REVERT JUMPDEST PUSH2 0x46B DUP3 PUSH2 0x2C0 JUMP JUMPDEST SWAP4 SWAP3 POP POP POP JUMP JUMPDEST PUSH1 0x1 DUP2 DUP2 SHR SWAP1 DUP3 AND DUP1 PUSH2 0x486 JUMPI PUSH1 0x7F DUP3 AND SWAP2 POP JUMPDEST PUSH1 0x20 DUP3 LT DUP2 SUB PUSH2 0x4A4 JUMPI PUSH4 0x4E487B71 PUSH1 0xE0 SHL PUSH0 MSTORE PUSH1 0x22 PUSH1 0x4 MSTORE PUSH1 0x24 PUSH0 REVERT JUMPDEST POP SWAP2 SWAP1 POP JUMP JUMPDEST PUSH1 0x1F DUP3 GT ISZERO PUSH2 0x4F1 JUMPI DUP1 PUSH0 MSTORE PUSH1 0x20 PUSH0 KECCAK256 PUSH1 0x1F DUP5 ADD PUSH1 0x5 SHR DUP2 ADD PUSH1 0x20 DUP6 LT ISZERO PUSH2 0x4CF JUMPI POP DUP1 JUMPDEST PUSH1 0x1F DUP5 ADD PUSH1 0x5 SHR DUP3 ADD SWAP2 POP JUMPDEST DUP2 DUP2 LT ISZERO PUSH2 0x4EE JUMPI PUSH0 DUP2 SSTORE PUSH1 0x1 ADD PUSH2 0x4DB JUMP JUMPDEST POP POP JUMPDEST POP POP POP JUMP JUMPDEST DUP2 MLOAD PUSH8 0xFFFFFFFFFFFFFFFF DUP2 GT ISZERO PUSH2 0x510 JUMPI PUSH2 0x510 PUSH2 0x2DB JUMP JUMPDEST PUSH2 0x524 DUP2 PUSH2 0x51E DUP5 SLOAD PUSH2 0x472 JUMP JUMPDEST DUP5 PUSH2 0x4AA JUMP JUMPDEST PUSH1 0x20 PUSH1 0x1F DUP3 GT PUSH1 0x1 DUP2 EQ PUSH2 0x556 JUMPI PUSH0 DUP4 ISZERO PUSH2 0x53F JUMPI POP DUP5 DUP3 ADD MLOAD JUMPDEST PUSH0 NOT PUSH1 0x3 DUP6 SWAP1 SHL SHR NOT AND PUSH1 0x1 DUP5 SWAP1 SHL OR DUP5 SSTORE PUSH2 0x4EE JUMP JUMPDEST PUSH0 DUP5 DUP2 MSTORE PUSH1 0x20 DUP2 KECCAK256 PUSH1 0x1F NOT DUP6 AND SWAP2 JUMPDEST DUP3 DUP2 LT ISZERO PUSH2 0x585 JUMPI DUP8 DUP6 ADD MLOAD DUP3 SSTORE PUSH1 0x20 SWAP5 DUP6 ADD SWAP5 PUSH1 0x1 SWAP1 SWAP3 ADD SWAP2 ADD PUSH2 0x565 JUMP JUMPDEST POP DUP5 DUP3 LT ISZERO PUSH2 0x5A2 JUMPI DUP7 DUP5 ADD MLOAD PUSH0 NOT PUSH1 0x3 DUP8 SWAP1 SHL PUSH1 0xF8 AND SHR NOT AND DUP2 SSTORE JUMPDEST POP POP POP POP PUSH1 0x1 SWAP1 DUP2 SHL ADD SWAP1 SSTORE POP JUMP JUMPDEST PUSH0 DUP3 MLOAD DUP1 PUSH1 0x20 DUP6 ADD DUP5 MCOPY PUSH0 SWAP3 ADD SWAP2 DUP3 MSTORE POP SWAP2 SWAP1 POP JUMP INVALID LOG2 PUSH5 0x6970667358 0x22 SLT KECCAK256 STATICCALL 0x1F SHL 0xD6 GASLIMIT PUSH26 0xCA66F1CD155D5E8B0E163010B07D0730D1324B392D7F3BA887B8 PUSH5 0x736F6C6343 STOP ADDMOD 0x1E STOP CALLER LOG2 PUSH5 0x6970667358 0x22 SLT KECCAK256 SHL 0x2D PUSH2 0x575 LOG2 0x24 0xCD 0x21 SWAP7 CALL RETURNDATACOPY SIGNEXTEND CALLDATALOAD 0x2A SWAP1 SWAP15 PUSH22 0x911A68FF213BDB8B924F27AFAF8464736F6C63430008 0x1E STOP CALLER "
				},
				"gasEstimates": {
					"creation": {
						"codeDepositCost": "489200",
						"executionCost": "522",
						"totalCost": "489722"
					},
					"external": {
						"CreateSimpleStorageContract()": "infinite",
						"listOfSimpleStoragecontracts(uint256)": "4577",
						"sfGet(uint128)": "infinite",
						"sfStore(uint128,uint128)": "infinite"
					}
				},
				"methodIdentifiers": {
					"CreateSimpleStorageContract()": "9fa05b28",
					"listOfSimpleStoragecontracts(uint256)": "2dc72184",
					"sfGet(uint128)": "9be8e17e",
					"sfStore(uint128,uint128)": "e2476bad"
				}
			},
			"storageLayout": {
				"storage": [
					{
						"astId": 66,
						"contract": "Contracts/StorageFactory.sol:StorageFactory",
						"label": "listOfSimpleStoragecontracts",
						"offset": 0,
						"slot": "0",
						"type": "t_array(t_contract(SimpleStorage)58)dyn_storage"
					}
				],
				"types": {
					"t_array(t_contract(SimpleStorage)58)dyn_storage": {
						"base": "t_contract(SimpleStorage)58",
						"encoding": "dynamic_array",
						"label": "contract SimpleStorage[]",
						"numberOfBytes": "32"
					},
					"t_contract(SimpleStorage)58": {
						"encoding": "inplace",
						"label": "contract SimpleStorage",
						"numberOfBytes": "20"
					}
				}
			},
			"userdoc": {
				"kind": "user",
				"methods": {},
				"version": 1
			}
		}
	}
}