{
	"data": {
		"bytecode": {
			"linkReferences": {},
			"object": "6080604052348015600e575f5ffd5b506104488061001c5f395ff3fe608060405234801561000f575f5ffd5b506004361061004a575f3560e01c806341bd925c1461004e578063c3c235221461006c578063c5641c7c1461007f578063ccbb866114610093575b5f5ffd5b6100566100a6565b6040516100639190610160565b60405180910390f35b61005661007a366004610234565b610131565b61009161008d36600461026e565b5050565b005b6100916100a1366004610234565b610155565b5f80546100b2906102d3565b80601f01602080910402602001604051908101604052809291908181526020018280546100de906102d3565b80156101295780601f1061010057610100808354040283529160200191610129565b820191905f5260205f20905b81548152906001019060200180831161010c57829003601f168201915b505050505081565b8051602081830181018051600282529282019190930120915280546100b2906102d3565b5f61008d8282610357565b602081525f82518060208401528060208501604085015e5f604082850101526040601f19601f83011684010191505092915050565b634e487b7160e01b5f52604160045260245ffd5b5f82601f8301126101b8575f5ffd5b813567ffffffffffffffff8111156101d2576101d2610195565b604051601f8201601f19908116603f0116810167ffffffffffffffff8111828210171561020157610201610195565b604052818152838201602001851015610218575f5ffd5b816020850160208301375f918101602001919091529392505050565b5f60208284031215610244575f5ffd5b813567ffffffffffffffff81111561025a575f5ffd5b610266848285016101a9565b949350505050565b5f5f6040838503121561027f575f5ffd5b823567ffffffffffffffff811115610295575f5ffd5b6102a1858286016101a9565b925050602083013567ffffffffffffffff8111156102bd575f5ffd5b6102c9858286016101a9565b9150509250929050565b600181811c908216806102e757607f821691505b60208210810361030557634e487b7160e01b5f52602260045260245ffd5b50919050565b601f82111561035257805f5260205f20601f840160051c810160208510156103305750805b601f840160051c820191505b8181101561034f575f815560010161033c565b50505b505050565b815167ffffffffffffffff81111561037157610371610195565b6103858161037f84546102d3565b8461030b565b6020601f8211600181146103b7575f83156103a05750848201515b5f19600385901b1c1916600184901b17845561034f565b5f84815260208120601f198516915b828110156103e657878501518255602094850194600190920191016103c6565b508482101561040357868401515f19600387901b60f8161c191681555b50505050600190811b0190555056fea2646970667358221220a74309f9ec8aa29bdb3889753481b00d938bd34eb52dcf9acb0eb0cd6681578364736f6c634300081e0033",
			"opcodes": "PUSH1 0x80 PUSH1 0x40 MSTORE CALLVALUE DUP1 ISZERO PUSH1 0xE JUMPI PUSH0 PUSH0 REVERT JUMPDEST POP PUSH2 0x448 DUP1 PUSH2 0x1C PUSH0 CODECOPY PUSH0 RETURN INVALID PUSH1 0x80 PUSH1 0x40 MSTORE CALLVALUE DUP1 ISZERO PUSH2 0xF JUMPI PUSH0 PUSH0 REVERT JUMPDEST POP PUSH1 0x4 CALLDATASIZE LT PUSH2 0x4A JUMPI PUSH0 CALLDATALOAD PUSH1 0xE0 SHR DUP1 PUSH4 0x41BD925C EQ PUSH2 0x4E JUMPI DUP1 PUSH4 0xC3C23522 EQ PUSH2 0x6C JUMPI DUP1 PUSH4 0xC5641C7C EQ PUSH2 0x7F JUMPI DUP1 PUSH4 0xCCBB8661 EQ PUSH2 0x93 JUMPI JUMPDEST PUSH0 PUSH0 REVERT JUMPDEST PUSH2 0x56 PUSH2 0xA6 JUMP JUMPDEST PUSH1 0x40 MLOAD PUSH2 0x63 SWAP2 SWAP1 PUSH2 0x160 JUMP JUMPDEST PUSH1 0x40 MLOAD DUP1 SWAP2 SUB SWAP1 RETURN JUMPDEST PUSH2 0x56 PUSH2 0x7A CALLDATASIZE PUSH1 0x4 PUSH2 0x234 JUMP JUMPDEST PUSH2 0x131 JUMP JUMPDEST PUSH2 0x91 PUSH2 0x8D CALLDATASIZE PUSH1 0x4 PUSH2 0x26E JUMP JUMPDEST POP POP JUMP JUMPDEST STOP JUMPDEST PUSH2 0x91 PUSH2 0xA1 CALLDATASIZE PUSH1 0x4 PUSH2 0x234 JUMP JUMPDEST PUSH2 0x155 JUMP JUMPDEST PUSH0 DUP1 SLOAD PUSH2 0xB2 SWAP1 PUSH2 0x2D3 JUMP JUMPDEST DUP1 PUSH1 0x1F ADD PUSH1 0x20 DUP1 SWAP2 DIV MUL PUSH1 0x20 ADD PUSH1 0x40 MLOAD SWAP1 DUP2 ADD PUSH1 0x40 MSTORE DUP1 SWAP3 SWAP2 SWAP1 DUP2 DUP2 MSTORE PUSH1 0x20 ADD DUP3 DUP1 SLOAD PUSH2 0xDE SWAP1 PUSH2 0x2D3 JUMP JUMPDEST DUP1 ISZERO PUSH2 0x129 JUMPI DUP1 PUSH1 0x1F LT PUSH2 0x100 JUMPI PUSH2 0x100 DUP1 DUP4 SLOAD DIV MUL DUP4 MSTORE SWAP2 PUSH1 0x20 ADD SWAP2 PUSH2 0x129 JUMP JUMPDEST DUP3 ADD SWAP2 SWAP1 PUSH0 MSTORE PUSH1 0x20 PUSH0 KECCAK256 SWAP1 JUMPDEST DUP2 SLOAD DUP2 MSTORE SWAP1 PUSH1 0x1 ADD SWAP1 PUSH1 0x20 ADD DUP1 DUP4 GT PUSH2 0x10C JUMPI DUP3 SWAP1 SUB PUSH1 0x1F AND DUP3 ADD SWAP2 JUMPDEST POP POP POP POP POP DUP2 JUMP JUMPDEST DUP1 MLOAD PUSH1 0x20 DUP2 DUP4 ADD DUP2 ADD DUP1 MLOAD PUSH1 0x2 DUP3 MSTORE SWAP3 DUP3 ADD SWAP2 SWAP1 SWAP4 ADD KECCAK256 SWAP2 MSTORE DUP1 SLOAD PUSH2 0xB2 SWAP1 PUSH2 0x2D3 JUMP JUMPDEST PUSH0 PUSH2 0x8D DUP3 DUP3 PUSH2 0x357 JUMP JUMPDEST PUSH1 0x20 DUP2 MSTORE PUSH0 DUP3 MLOAD DUP1 PUSH1 0x20 DUP5 ADD MSTORE DUP1 PUSH1 0x20 DUP6 ADD PUSH1 0x40 DUP6 ADD MCOPY PUSH0 PUSH1 0x40 DUP3 DUP6 ADD ADD MSTORE PUSH1 0x40 PUSH1 0x1F NOT PUSH1 0x1F DUP4 ADD AND DUP5 ADD ADD SWAP2 POP POP SWAP3 SWAP2 POP POP JUMP JUMPDEST PUSH4 0x4E487B71 PUSH1 0xE0 SHL PUSH0 MSTORE PUSH1 0x41 PUSH1 0x4 MSTORE PUSH1 0x24 PUSH0 REVERT JUMPDEST PUSH0 DUP3 PUSH1 0x1F DUP4 ADD SLT PUSH2 0x1B8 JUMPI PUSH0 PUSH0 REVERT JUMPDEST DUP2 CALLDATALOAD PUSH8 0xFFFFFFFFFFFFFFFF DUP2 GT ISZERO PUSH2 0x1D2 JUMPI PUSH2 0x1D2 PUSH2 0x195 JUMP JUMPDEST PUSH1 0x40 MLOAD PUSH1 0x1F DUP3 ADD PUSH1 0x1F NOT SWAP1 DUP2 AND PUSH1 0x3F ADD AND DUP2 ADD PUSH8 0xFFFFFFFFFFFFFFFF DUP2 GT DUP3 DUP3 LT OR ISZERO PUSH2 0x201 JUMPI PUSH2 0x201 PUSH2 0x195 JUMP JUMPDEST PUSH1 0x40 MSTORE DUP2 DUP2 MSTORE DUP4 DUP3 ADD PUSH1 0x20 ADD DUP6 LT ISZERO PUSH2 0x218 JUMPI PUSH0 PUSH0 REVERT JUMPDEST DUP2 PUSH1 0x20 DUP6 ADD PUSH1 0x20 DUP4 ADD CALLDATACOPY PUSH0 SWAP2 DUP2 ADD PUSH1 0x20 ADD SWAP2 SWAP1 SWAP2 MSTORE SWAP4 SWAP3 POP POP POP JUMP JUMPDEST PUSH0 PUSH1 0x20 DUP3 DUP5 SUB SLT ISZERO PUSH2 0x244 JUMPI PUSH0 PUSH0 REVERT JUMPDEST DUP2 CALLDATALOAD PUSH8 0xFFFFFFFFFFFFFFFF DUP2 GT ISZERO PUSH2 0x25A JUMPI PUSH0 PUSH0 REVERT JUMPDEST PUSH2 0x266 DUP5 DUP3 DUP6 ADD PUSH2 0x1A9 JUMP JUMPDEST SWAP5 SWAP4 POP POP POP POP JUMP JUMPDEST PUSH0 PUSH0 PUSH1 0x40 DUP4 DUP6 SUB SLT ISZERO PUSH2 0x27F JUMPI PUSH0 PUSH0 REVERT JUMPDEST DUP3 CALLDATALOAD PUSH8 0xFFFFFFFFFFFFFFFF DUP2 GT ISZERO PUSH2 0x295 JUMPI PUSH0 PUSH0 REVERT JUMPDEST PUSH2 0x2A1 DUP6 DUP3 DUP7 ADD PUSH2 0x1A9 JUMP JUMPDEST SWAP3 POP POP PUSH1 0x20 DUP4 ADD CALLDATALOAD PUSH8 0xFFFFFFFFFFFFFFFF DUP2 GT ISZERO PUSH2 0x2BD JUMPI PUSH0 PUSH0 REVERT JUMPDEST PUSH2 0x2C9 DUP6 DUP3 DUP7 ADD PUSH2 0x1A9 JUMP JUMPDEST SWAP2 POP POP SWAP3 POP SWAP3 SWAP1 POP JUMP JUMPDEST PUSH1 0x1 DUP2 DUP2 SHR SWAP1 DUP3 AND DUP1 PUSH2 0x2E7 JUMPI PUSH1 0x7F DUP3 AND SWAP2 POP JUMPDEST PUSH1 0x20 DUP3 LT DUP2 SUB PUSH2 0x305 JUMPI PUSH4 0x4E487B71 PUSH1 0xE0 SHL PUSH0 MSTORE PUSH1 0x22 PUSH1 0x4 MSTORE PUSH1 0x24 PUSH0 REVERT JUMPDEST POP SWAP2 SWAP1 POP JUMP JUMPDEST PUSH1 0x1F DUP3 GT ISZERO PUSH2 0x352 JUMPI DUP1 PUSH0 MSTORE PUSH1 0x20 PUSH0 KECCAK256 PUSH1 0x1F DUP5 ADD PUSH1 0x5 SHR DUP2 ADD PUSH1 0x20 DUP6 LT ISZERO PUSH2 0x330 JUMPI POP DUP1 JUMPDEST PUSH1 0x1F DUP5 ADD PUSH1 0x5 SHR DUP3 ADD SWAP2 POP JUMPDEST DUP2 DUP2 LT ISZERO PUSH2 0x34F JUMPI PUSH0 DUP2 SSTORE PUSH1 0x1 ADD PUSH2 0x33C JUMP JUMPDEST POP POP JUMPDEST POP POP POP JUMP JUMPDEST DUP2 MLOAD PUSH8 0xFFFFFFFFFFFFFFFF DUP2 GT ISZERO PUSH2 0x371 JUMPI PUSH2 0x371 PUSH2 0x195 JUMP JUMPDEST PUSH2 0x385 DUP2 PUSH2 0x37F DUP5 SLOAD PUSH2 0x2D3 JUMP JUMPDEST DUP5 PUSH2 0x30B JUMP JUMPDEST PUSH1 0x20 PUSH1 0x1F DUP3 GT PUSH1 0x1 DUP2 EQ PUSH2 0x3B7 JUMPI PUSH0 DUP4 ISZERO PUSH2 0x3A0 JUMPI POP DUP5 DUP3 ADD MLOAD JUMPDEST PUSH0 NOT PUSH1 0x3 DUP6 SWAP1 SHL SHR NOT AND PUSH1 0x1 DUP5 SWAP1 SHL OR DUP5 SSTORE PUSH2 0x34F JUMP JUMPDEST PUSH0 DUP5 DUP2 MSTORE PUSH1 0x20 DUP2 KECCAK256 PUSH1 0x1F NOT DUP6 AND SWAP2 JUMPDEST DUP3 DUP2 LT ISZERO PUSH2 0x3E6 JUMPI DUP8 DUP6 ADD MLOAD DUP3 SSTORE PUSH1 0x20 SWAP5 DUP6 ADD SWAP5 PUSH1 0x1 SWAP1 SWAP3 ADD SWAP2 ADD PUSH2 0x3C6 JUMP JUMPDEST POP DUP5 DUP3 LT ISZERO PUSH2 0x403 JUMPI DUP7 DUP5 ADD MLOAD PUSH0 NOT PUSH1 0x3 DUP8 SWAP1 SHL PUSH1 0xF8 AND SHR NOT AND DUP2 SSTORE JUMPDEST POP POP POP POP PUSH1 0x1 SWAP1 DUP2 SHL ADD SWAP1 SSTORE POP JUMP INVALID LOG2 PUSH5 0x6970667358 0x22 SLT KECCAK256 0xA7 NUMBER MULMOD EXTDELEGATECALL EOFCREATE 0x8A LOG2 SWAP12 0xDB CODESIZE DUP10 PUSH22 0x3481B00D938BD34EB52DCF9ACB0EB0CD668157836473 PUSH16 0x6C634300081E00330000000000000000 "
		},
		"gasEstimates": {
			"creation": {
				"codeDepositCost": "219200",
				"executionCost": "261",
				"totalCost": "219461"
			},
			"external": {
				"AddNewReader(string,string)": "infinite",
				"addFavoriteBook(string)": "infinite",
				"favoriteBook()": "infinite",
				"nameFavBook(string)": "infinite"
			}
		},
		"methodIdentifiers": {
			"AddNewReader(string,string)": "c5641c7c",
			"addFavoriteBook(string)": "ccbb8661",
			"favoriteBook()": "41bd925c",
			"nameFavBook(string)": "c3c23522"
		}
	},
	"abi": [
		{
			"inputs": [
				{
					"internalType": "string",
					"name": "_readerName",
					"type": "string"
				},
				{
					"internalType": "string",
					"name": "_readerFavBook",
					"type": "string"
				}
			],
			"name": "AddNewReader",
			"outputs": [],
			"stateMutability": "nonpayable",
			"type": "function"
		},
		{
			"inputs": [
				{
					"internalType": "string",
					"name": "_name",
					"type": "string"
				}
			],
			"name": "addFavoriteBook",
			"outputs": [],
			"stateMutability": "nonpayable",
			"type": "function"
		},
		{
			"inputs": [],
			"name": "favoriteBook",
			"outputs": [
				{
					"internalType": "string",
					"name": "",
					"type": "string"
				}
			],
			"stateMutability": "view",
			"type": "function"
		},
		{
			"inputs": [
				{
					"internalType": "string",
					"name": "_name",
					"type": "string"
				}
			],
			"name": "nameFavBook",
			"outputs": [
				{
					"internalType": "string",
					"name": "_readerFavBook",
					"type": "string"
				}
			],
			"stateMutability": "view",
			"type": "function"
		}
	]
}